:020000040800F2
:1000000060050020D1000008D5180008A5170008D9
:1000100000000000000000000000000000000000E0
:10002000000000000000000000000000D9180008D7
:100030000000000000000000D7180008DB180008CE
:10004000E3000008E3000008E3000008E300000804
:10005000E300000875030008E3000008E30000085F
:10006000E300000819030008E3000008E3000008AB
:10007000E3000008E3000008E3000008E3000008D4
:10008000E30000083919000800000000E300000840
:10009000E3000008E3000008E3000008E3000008B4
:1000A000E3000008E3000008E3000008211D000849
:1000B000E300000800000000E30000080348854654
:1000C00000F08EF8004800476D220008600500200F
:1000D0000448804704480047FEE7FEE7FEE7FEE7E6
:1000E000FEE7FEE735190008BD00000830B50B46F5
:1000F000014600202022012409E00D46D5409D4202
:1001000005D31D469540491B254695404019154687
:10011000521E002DF1DC30BDF0B51FB406460020A4
:1001200082B005464024019100901BE001992246CF
:100130000F46304600F020F8049A059B801A99413A
:1001400010D310461946224600F039F8361A8F416E
:100150000197224601200021009F00F030F8381856
:100160004D4100902046641E0028DFDC019B009872
:100170002946324607B0F0BD10B5202A04DB0846F8
:10018000203AD040002110BD0B46D340D04020245F
:10019000A21A91400843194610BDD2B201E0027084
:1001A000401C491EFBD270470022F6E710B51346EB
:1001B0000A4604461946FFF7F0FF204610BD10B569
:1001C000202A04DB0146203A9140002010BD9140D6
:1001D00020239C1A0346E3401943904010BD0000C1
:1001E000064C0125064E05E0E36807CC2B430C3C8A
:1001F00098471034B442F7D3FFF764FF6C2300082C
:100200008C23000810B50146406A826B50231A42C5
:100210000AD1816B01225202114381630168CA68CD
:100220001205920F05D020E0006B026B0846904744
:1002300010BD827E002A18D10A68120715D58A6877
:1002400053070122002B09DB4B680C24A3434B60AE
:10025000816B130299431143816306E0816B202374
:1002600019438163C16B1143C16300F01FF910BDD5
:1002700010B5406A816B402211438163C16B042237
:100280001143C16300F014F910BD10B5406A00F0CD
:100290000EF910BDF8B50446002000902068816872
:1002A0008907890F012905D10168C9072CD1C168C7
:1002B000090429D48168154A102611400125002916
:1002C00015D1816829438160124811490068FFF700
:1002D0000DFF00E0401E00900028FBD100F0EEFB77
:1002E00007460CE000F0EAFBC01B022807D9A06B10
:1002F0003043A063E06B2843E0630120F8BD206831
:100300000068C043C007EDD10020F8BD1700008091
:1003100040420F001400002010B5024800F040FADF
:1003200010BD00001801002010B504460068054902
:1003300040181421FFF7DAFE800020640248E063D1
:1003400010BD0000F8FFFDBF0000024030B5056C95
:100350000124AC40C56B6C60046863604368102B7B
:10036000036803D099600068C26030BD9A6000687D
:10037000C16030BD10B5012000F0E4FA10BD704737
:10038000F8B50025044620340095227D012A3BD093
:100390000122227503689E68760776D43F4F4E6827
:1003A000BE4254D09E6A0F78BA4016439E62012323
:1003B000C26A1B079A421FD0012A1DD0022A1BD0F5
:1003C000032A19D0042A17D0052A15D0062A13D0DB
:1003D000072A11D002688B6856697607760FB342F8
:1003E0000AD05369DB08DB005361006842690B7A6D
:1003F0005B075B0F1A4342610868102806D011287A
:1004000004D0122802D045E00220F8BD244A9368A7
:10041000102809D011280AD0012000060343936058
:100420000868102806D035E00120C005F6E7012055
:100430008005F3E71C481B490068FFF757FE0A21B7
:10044000484300E0401E00900028FBD122E0986A5B
:100450000E78B240904398620868102803D01128A3
:1004600001D0122816D10E498A68102807D0112809
:1004700008D00120000682438A600BE005E00120DD
:10048000C005F8E701208005F5E7816B20221143C4
:1004900081630125002020752846F8BD0110000069
:1004A0000027014040420F001400002070477047B1
:1004B00070470000F8B500260446002805D0A06B60
:1004C00025462035002802D007E00120F8BD002095
:1004D000E0632875204600F0A9F8A06B1022C00642
:1004E000002870DB2068816849076CD4A16B130178
:1004F000994302231943A16381688907890F012960
:1005000005D10168C9070FD1C16809040CD4C168BD
:1005100018239943A3681943C1602068016963687F
:1005200089008908194301612068C1683D4B194061
:10053000C160207E617E8003C9030843A17E4B0316
:100540001843A36A012B02D001231B0300E0002300
:100550001843E36818432369022B09D0002318438A
:100560002B79E57E5B0018430123012D02D00AE0C0
:100570000423F4E7002927D0A16B20252943A16398
:10058000E16B1943E163E1690D46FF3DC23D02D0D5
:10059000256A294308432168CD680543CD600125BC
:1005A000E16A2D07A94213D0012911D002290FD0E9
:1005B00003290DD004290BD0052909D0062907D01D
:1005C000072905D010E028E0012109040843DAE7F3
:1005D00021684D69ED08ED004D6121684D69A78DD9
:1005E0007F077F0F3D434D612168C9680E4D29404B
:1005F000814207D10020E063A06B80088000401C8E
:10060000A06308E0A06B022188431043A063E06B65
:100610001843E06301263046F8BDA06B1043A06389
:10062000F8E700001902FEFFE7FF3F8370B586B0D0
:10063000054614216846FFF7B7FD1B492868884224
:1006400030D11A498A69401502438A618A69024099
:1006500005924A69000202434A6149690026014045
:1006600005911E2000900320019009206946029602
:10067000C00600F073F90E480E4C41C4802026607D
:1006800060604000A0608000E06020206661206122
:100690000848083C00F0D2F8002801D0FFF76FFEB0
:1006A0002C63656206B070BD00240140001002405A
:1006B0000800024018010020F7B504460068002534
:1006C000806840073DD426462036307D01280AD078
:1006D00001273775607E012807D02046FFF7DAFD35
:1006E000050002D02EE00220FEBDA06B1649084096
:1006F000FF2101310843A0630020E0633075216BC6
:1007000012488862216B1248C862216B1148086345
:1007100021681C2008602068416810221143416054
:100720002068C1683943C1602168206B4031029B59
:10073000019A00F0ADF820688168042211438160BD
:1007400000E002252846FEBDFEF1FFFF050200087D
:100750008B0200087102000870B5002401462031A8
:100760004A78022A03D004218163012416E002683A
:1007700013680E25AB431360026813685B085B00C7
:1007800013600122056C1346AB40C56B6B604A7069
:1007900000220A70416B002900D08847204670BDB6
:1007A000F0B4C16B0D6801680C680422066C134636
:1007B000B3402B420DD063070BD50B689B0602D4C8
:1007C0000B6893430B60016C8A40C16B4A60C16A3D
:1007D00019E00227B74002462F4001232032002FA4
:1007E00015D0A70713D50C68A40604D40C680A25F5
:1007F000AC430C605370036C02219940C36B596089
:1008000000211170816A002916D0F0BC0847082722
:10081000B7402F4210D024070ED50C680E25AC43EC
:100820000C60046C1946A140C46B61608363537013
:1008300000211170016BE6E7F0BC704770B5040051
:1008400021D00221204620300546417022681168DF
:100850000E48A3680140606826691843E368334383
:10086000184363691843A3691843E36918430843AD
:1008700010602046FFF758FD0021A1630120687039
:100880002970084670BD012070BD00000FC0FFFF39
:10089000F8B504468C46203001780025012909D09E
:1008A0000126067041780027012905D0077002252E
:1008B0002846F8BD0220F8BD02214170A7632068D8
:1008C000016849084900016061462046FFF73EFD86
:1008D000E06A00282068016802D00E22114306E079
:1008E0000A221143016020680168042291430160DB
:1008F0002068016831430160DAE7000070B5044602
:1009000000F0DCF80546601C02D00448007824188A
:1009100000F0D4F8401BA042FAD370BD08000020BC
:1009200010B501225102054800F0C2F8044800F059
:10093000B3FC0A20FFF7E2FF10BD000000080048EA
:100940005800002010B504494A69024202D04861AB
:10095000FFF7E6FF10BD000000040140F8B50023DA
:100960008DE001249C40A44622407DD04C68022C9E
:1009700001D0122C0CD1DC08A40027183C6A5D07BA
:10098000ED0E0F26AE40B4430E69AE4026433E62E4
:1009900005685E000324B4400F79A543BF07BF0F6D
:1009A000B7402F4307604D68012D05D0022D03D0BD
:1009B000112D01D0122D0ED18568CF68A543B74007
:1009C0002F43876047686546AF430D79ED06ED0F0D
:1009D0009D403D434560C568A5438C68B4402C43A9
:1009E000C4604C68E40049D5284CA569012635430C
:1009F000A561A4699D0834400094254CAD002F19D1
:100A0000BC689D072E0F0F25B540AC430925ED06A8
:100A1000A84201D100250FE01E4DA84201D10125B9
:100A20000AE01D4DA84201D1022505E01B4DA84258
:100A300001D1032500E00525B5402543BD60184CD4
:100A400025684E689543F60300D515432560656813
:100A50004E689543B60300D515436560A5684E689A
:100A60009543F60202D500E008E01543A560E5686D
:100A70004E689543B60200D51543E5605B1C0A68D5
:100A80001446DC4000D06CE7F8BD000000100240C6
:100A9000000001400004004800080048000C004825
:100AA0000004014042690A4200D009048161704794
:100AB000002A01D0816170478162704701488068D7
:100AC00070470000080000200248816802788918F9
:100AD000816070470800002010B5064801681022A8
:100AE00011430160002000F007F800F027F8002013
:100AF00010BD00000020024070B504460D4D7D2061
:100B00002978C000FFF7F2FA01460B480068FFF7AA
:100B1000EDFA00F04BFB002809D1042C07D200228B
:100B20002146401E00F02AF800206C6070BD0120B4
:100B300070BD0000080000201400002008B508481F
:100B40008169012211438161816911400091C2696B
:100B500001040A43C261C0690840009008BD00005A
:100B600000100240002805DBC106C90E01208840A4
:100B7000014908607047000000E100E010B501F095
:100B800003F910BDF8B505460068394CC00352D5CD
:100B9000E0690026C00007D4E16920040143E16157
:100BA000E16901400126009132480168C90510D46D
:100BB0000168821511430160FFF780FF074604E0DA
:100BC000FFF77CFFC01B642824D82A480068C005B2
:100BD000F6D5206A03273F02384020D069683940A3
:100BE00081421CD0206A226AB843012109040A43C9
:100BF0002262226A8A4322622062C0070FD0FFF776
:100C00005DFF009008E0FFF759FF0099411A1A486C
:100C1000814201D90320F8BD206A8007F3D5206AFC
:100C20006968B84308432062002E04D0E1690120BE
:100C300000078143E1612878C00705D0206BA968CF
:100C400080088000084320632878800605D5206B43
:100C500010218843E968084320632888400505D5AA
:100C6000206B402188432969084320630020F8BD98
:100C7000001002400070004088130000F8B50F46D5
:100C8000060059D03A4D2868C007C00FB84209D2B3
:100C9000286840084000384328602868C007C00F13
:100CA000B84249D13068334C81070CD5400704D590
:100CB000606807210902084360606068F02188438A
:100CC000B168084360603078C00726D0706801289A
:100CD0000ED0216802280ED0890700292CDA61681D
:100CE0008908890001436160FFF7E8FE00900DE08C
:100CF00021688903F1E78901EFE7FFF7DFFE00993B
:100D0000411A1D48814201D90320F8BD60680C21B9
:100D10000840716889008842EFD12868C007C00F79
:100D2000B8420BD92868400840003843286028683A
:100D3000C007C00FB84201D00120F8BD307840078D
:100D400006D56068072109028843F168084360609E
:100D500000F028F86168094A0906090F515CC8408B
:100D6000074908600020FFF7C7FE0020F8BD00001B
:100D700000200240001002408813000054230008A5
:100D8000140000200448054900684968044A4905E0
:100D9000490F515CC8407047140000200010024009
:100DA0006423000810B514A30FCB88B06C460FC4A1
:100DB00015A30FCB0FC4184A51680C200B460340F3
:100DC0001648042B16D0082B14D18B021B0F6C462F
:100DD000E45CD26A04AB1207120F9A5CC90305D512
:100DE00000231946FFF798F9214601E020460C49F7
:100DF00000F0B2FF08B010BD0203040506070809A1
:100E00000A0B0C0D0E0F1010010203040506070853
:100E1000090A0B0C0D0E0F100010024000127A0090
:100E200000093D00FEB5040070D02078DC4DC007FD
:100E30004AD068680007800F012807D0686800075B
:100E4000800F022809D16868C00306D5286880038E
:100E50003AD560680028E7D036E06168012914D0EF
:100E600001208004002901D0052914D02A6801211D
:100E700009048A432A602968814329606068002840
:100E800016D0FFF71BFE06460EE028680121090474
:100E900008432860F2E7296801432960F5E7FFF776
:100EA0000DFE801B64286ED828688003F7D50BE000
:100EB000FFF704FE064604E0FFF700FE801B6428EF
:100EC000F1D828688003F7D420780126800700280D
:100ED0003CDA68680007800F07D068680007800F59
:100EE000022809D16868C00306D42868800716D58F
:100EF000E06801280AD112E0E0680028286816D0CE
:100F000030432860FFF7DAFD074605E043E1FFF7CD
:100F1000D5FDC01B0228C6D828688007F7D52868E9
:100F2000F82188432169C900084328600EE0400881
:100F300040002860FFF7C2FD074604E0FFF7BEFD52
:100F4000C01B0228AFD828688007F7D42078000794
:100F500022D5E0690028686A0ED030436862FFF746
:100F6000ADFD074604E0FFF7A9FDC01B02289AD893
:100F7000686A8007F7D50FE0400840006862FFF715
:100F80009DFD074605E09DE0FFF798FDC01B022888
:100F900089D8686A8007F7D420780427400700289A
:100FA00060DA00200190E869C00008D4E969B80659
:100FB0000143E961E969014001200091019079480C
:100FC0000168C90511D40168821511430160FFF75A
:100FD00075FD009005E0FFF771FD0099401A642847
:100FE00070D870480068C005F5D5A06801280AD0FF
:100FF000002801D0052810D0286A40084000286247
:10100000286AB84301E0286A30432862A0680028B3
:1010100012D0FFF753FD00900AE0286A3843286297
:10102000F1E7FFF74BFD0099411A5F48814249D82B
:10103000286A8007F5D50DE0FFF740FD009006E037
:10104000FFF73CFD0099411A574881423AD8286A77
:101050008007F5D40198002804D0E9690120000731
:101060008143E9612078C00635D5606901280CD03C
:10107000401D686B23D038436863686B40084000AC
:101080006863FFF71BFD064622E0686B3843686320
:10109000686B30436863FFF711FD064604E0FFF715
:1010A0000DFD801B02285BD8686B8007F7D5686B45
:1010B000F8218843A169C900084368630BE0B8437D
:1010C0006863F4E74CE0FFF7F9FC801B022847D87F
:1010D000686B8007F7D4206A00285ED0696809072A
:1010E000890F022942D0012636060228286805D039
:1010F000B0432860FFF7E2FC044633E0B0432860C9
:10110000FFF7DCFC074604E0FFF7D8FCC01B022811
:1011100026D828688001F7D4E86AE16A000900014E
:101120000843E862616AA06A084369683D221204C4
:10113000914308436860286830432860FFF7BEFC8D
:10114000044604E0FFF7BAFC001B022808D8286810
:101150008001F7D521E0FFF7B1FC001B022801D97F
:101160000320FEBD28688001F5D416E00128F8D0E0
:101170006868E96A01221204636A02409A420AD14D
:101180000907E26A090F914205D10F21890408403D
:10119000A16A884201D00120FEBD0020FEBD0000F2
:1011A000001002400070004088130000094910B58B
:1011B000401E884201D9012010BD074C6061032107
:1011C000081F00F0E1FD0020A06107202061002041
:1011D00010BD0000FFFFFF0000E000E07047704717
:1011E000F0B502462032137F012B21D0012515775F
:1011F0000223537706687468B3687027BC430F688E
:101200002743776000680B4CA04208D0AC07A0428F
:1012100005D0094CA04202D0084CA04204D1802441
:101220004968A34319438160557700201077F0BDCA
:101230000220F0BD002C01400004004000400140AD
:1012400070B5040005D025462035687F002802D0FF
:1012500006E0012070BD00202877204600F00AF843
:1012600002206877211D206800F06EFB012068775E
:10127000002070BD08B500680549884207D10548BF
:10128000C26910210A43C261C0690840009008BDCC
:1012900000100040001002400268D36801210B4397
:1012A000D360006882685207520F062A02D0026893
:1012B0000A430260002070470168CA685208520061
:1012C000CA600068016A064A114207D1016A921099
:1012D000114203D1016849084900016000207047AC
:1012E00011110000704770B50446006801690025BF
:1012F000C9438907002915DBC168C943890711D48F
:10130000E91E01610120207720688069800720465E
:1013100002D0FFF7E7FF04E000F096F8204600F067
:1013200094F8257720680169C943490717D4C16833
:10133000C943490713D40421C9430161022020771E
:10134000206880698005800F204602D0FFF7CAFF21
:1013500004E000F079F8204600F077F8257720685F
:101360000169C943090716D4C168C943090712D4E2
:101370000821C9430161042020772068C0698007E3
:10138000204602D0FFF7AEFF04E000F05DF82046F3
:1013900000F05BF8257720680169C943C90617D4B6
:1013A000C168C943C90613D41021C943016108208B
:1013B00020772068C0698005800F204602D0FFF7A3
:1013C00091FF04E000F040F8204600F03EF8257759
:1013D00020680169C943C90708D1C168C943C90761
:1013E00004D1891E0161204600F030F820680169AF
:1013F000C943090609D4C168C943090605D4802137
:10140000C94301612046FFF7E9FE20680169C9432D
:10141000490609D4C168C943490605D44021C943D6
:101420000161204600F03AF820680169C943890645
:1014300009D4C168C943890605D42021C943016183
:101440002046FFF7CCFE70BD7047704770B500684E
:101450000E49884209D10E4C811562680D48032A55
:1014600004DA521C6260FFF71DFB70BD00220546C6
:10147000FFF71EFB0121002249022846FFF718FB57
:10148000002060600448FFF717FF70BD00100040A7
:1014900000000020000800485800002070477047F6
:1014A00070470000F8B502680446D0691168936877
:1014B000524D05402E462025002E68D0DE07F60F3F
:1014C000FF2721370F40374375D0C70706D0CF0518
:1014D00004D501271762E26F3A43E267820708D515
:1014E000DA0706D0276802223A62E26F04273A43FD
:1014F000E267420708D5DA0706D0236804221A6299
:10150000E26F02231A43E267020709D50A462A401E
:10151000324305D0236808221A62E36F1343E3675E
:10152000020508D54A0106D501222368D2021A62B3
:10153000E26F2A43E267E26F002A30D0800606D5C8
:10154000880604D5216E002901D020468847E06F27
:1015500021688968490602D42821084224D02046FF
:1015600000F0DCFA20688168490619D581684022BC
:1015700091438160E06E002812D021494163E06E02
:10158000FFF7EAF800280AD0E06E416B06E0860615
:1015900011D58E060FD5216E1DE020468847F8BD77
:1015A0002046FFF77DFFF8BD2046FFF779FF0020BA
:1015B000E067F8BDFFE7C60208D55B0206D501204B
:1015C000000510622046FFF76AFFF2E7030605D523
:1015D0000B0603D5616E0029DFD1EAE74006E8D5A6
:1015E0004806E6D51368204640218B4313606567A3
:1015F0000021616600F0D5F8DBE700000F0800006D
:10160000091B000810B5040003D0606F002802D049
:1016100007E0012010BD002170200155204600F098
:1016200027F82420606720680168490849000160A4
:10163000204600F083FA0128ECD0606A002802D02E
:10164000204600F0CBF9206841680922D20291437C
:101650004160206881682A22914381602068016886
:10166000012211430160204600F01EFA10BD000067
:1016700010B586B0044614216846FEF795FD13495F
:10168000206888421FD112488269012189030A43D8
:10169000826182690A4005924269C9000A43426137
:1016A000406908400590032040020090022001900C
:1016B0000020029003200390012004900920694635
:1016C000C006FFF74BF906B010BD0000003801401E
:1016D00000100240FFB50446406F83B017460D4628
:1016E00020285CD1002D0AD0002F08D0A168C001AD
:1016F000814207D12069002804D1E80702D00120E7
:1017000007B0F0BD204660300290007C012846D032
:101710000298012101740020E06721206067FFF733
:10172000CDF9264640360190378277820120A168A4
:101730000003814202D12069002802D02F460025F3
:1017400011E000270FE000228021204600F09AFAE5
:10175000002815D1002F15D02168387808857F1C06
:10176000708A401E7082708A019B00280698009043
:10177000E9D100224021204600F084FA002808D058
:101780000320BDE728882168C005C00D0885AD1C71
:10179000E6E720206067029900200874B0E7022085
:1017A000AEE77047FEE700003EB500211C480091FF
:1017B00001911A4A029102608160012412050461BC
:1017C0004260C16008224261017641768476FF2240
:1017D000C176C232C2610162014620310C7184625D
:1017E000FEF768FE200301900720029000946946EE
:1017F0000B48FEF7C5FD0220009069460848FEF739
:10180000BFFD0320009069460548FEF7B9FD04209E
:10181000009069460248FEF7B3FD3EBD002401403A
:1018200018000020F0B587B014216846FEF7BCFC14
:10183000194842690121C9040A43426142690A40C8
:101840000592426989100A434261406903260840B3
:10185000124F36020590002231463846FFF728F92C
:1018600001240F4801900094694602943846FFF71E
:1018700075F80025092001956946C0060295009477
:10188000FFF76CF802956946384600960395019477
:10189000FFF764F807B0F0BD0010024000080048F0
:1018A0000000111010B50A4808490160E121490201
:1018B000416000218160C16001618161C1610C22D0
:1018C000016242614162FFF79DFE10BD0038014098
:1018D0009800002070477047704710B5FFF7F4F884
:1018E00010BD30B595B030216846FEF75DFC002490
:1018F0000C940D940E94142110A80F94FEF754FC30
:101900000220009001251020039504900894684659
:10191000FFF788FA07200C900D940E9400210F9485
:101920000CA8FFF7ABF910A810951294FFF72AF94D
:1019300015B030BD7047000010B50248FFF7D3FC6A
:1019400010BD000058000020F0B502681D4B0124B6
:10195000A4071D4D984203D0A04201D0A84203D154
:101960007026B2434E683243184E194F98420DD03C
:10197000A0420BD0A84209D0164CA04206D0B042DB
:1019800004D0B84202D0144CA04204D10324240253
:10199000A243CC6822438024A2434C6922430260C4
:1019A0008A68C2620A688262984206D0B04204D055
:1019B000B84202D0084A904201D10969016301216D
:1019C0004161F0BD002C0140000400400040014096
:1019D00000440140002000400048014010B5818CC7
:1019E000C90707D001684A6801235B049A43836AE8
:1019F0001A434A60818C890707D501684A68012328
:101A00001B049A43C36A1A434A60818C490707D56D
:101A100001684A6801239B049A43036B1A434A6096
:101A2000818C090707D501684A680123DB039A43C3
:101A3000436B1A434A60818CC90607D502689168D6
:101A400001231B039943836B19439160818C8906A1
:101A500007D501688A6801235B039A43C36B1A4365
:101A60008A60818C490612D503685A6801210905EC
:101A7000046C8A4322435A60026C8A4207D102688E
:101A8000516803235B059943436C19435160818C72
:101A9000090607D501684A680123DB04806C9A4374
:101AA00002434A6010BD0000F8B500260446C66730
:101AB000FFF704F8054620680068124F000709D5B3
:101AC00001212B46002249052046009700F0DAF854
:101AD00000280DD12068006840070BD501212B4656
:101AE000002289052046009700F0CCF8002801D09C
:101AF0000320F8BD20206067A067603426740020B2
:101B0000F8BD0000FFFFFF0110B5406A002201464A
:101B100040314A834A82FFF7C3FC10BD01680A685E
:101B2000FF2321339A430A6001688A6852085200F1
:101B30008A602021816700210166704770B50446E4
:101B400080682169E26908436169002511432268C0
:101B500008431168444B19400143116021684868EB
:101B6000032212039043E26810434860A169206A8F
:101B70002268084391680B231B029943014391603B
:101B80003A492068884210D13948006B8007800F9D
:101B900011D0012805D0022805D003280AD102203F
:101BA00009E0042007E0082005E03249884201D11D
:101BB000002000E010200122E169D2032E4E914264
:101BC00028D1002806D0022807D0042817D00828DA
:101BD00044D11AE0FFF7D6F813E06168274A4808B5
:101BE0008018FEF783FA80B201461039B14235D829
:101BF0002149491C01400007400F084321E0FFF73D
:101C0000D1F8616840004A08EAE7616801224808A3
:101C10001204E5E7002806D0022807D0042813D0D4
:101C200008281BD116E0FFF7ADF80FE06168144AF1
:101C3000480811E0FEF75AFA80B201461039B14265
:101C40000CD82168C8600AE0FFF7ACF861684A0860
:101C50001018EFE7616848088018EBE701250020BD
:101C600020666066284670BDF369FFFF00380140BA
:101C70000010024000440040EFFF00000024F40088
:101C800000127A00FFB581B005460F460446603564
:101C90000A9E38E0701C36D0FEF710FF0499401AF7
:101CA000B04221D8002E1FD02068016849072AD5EC
:101CB000C069C043000526D401202168C002086223
:101CC00020680168FF22A132914301602068816889
:101CD00049084900816020206067A067E067002014
:101CE0002874032005B0F0BD20680168FF22A132EE
:101CF0009143016020688168490849008160202083
:101D00006067A067EBE72068C1693846884305D063
:101D1000002103988142BDD00020E3E70121F8E7CC
:101D200010B50248FFF7BEFB10BD00009800002070
:101D30000FB410B504A9074B02AA039800F056F897
:101D4000044602A9002000F08BFA204610BC08BC13
:101D500004B0184761220008F8B5040C8BB226467F
:101D600082B25E430D0C1046370C5843360480197E
:101D70000021794116466E43370C360480197941AB
:101D800026466E438919F8BD8307FF22DB0E9A4071
:101D90008907090E9940002808DB830809489B0041
:101DA0001B18186890430843186070470007000F1D
:101DB0000838830804489B001B18D86990430843DF
:101DC000D861704700E400E000ED00E002E008C8E0
:101DD000121F08C1002AFAD170477047002001E0A5
:101DE00001C1121F002AFBD170470000FFB591B05E
:101DF0000F460546002606E025280AD0149A1399B6
:101E000090476D1C761C28780028F5D1304615B017
:101E1000F0BD002400940121F34A029400E0044341
:101E20006D1C2B780846203B98401042F7D128784B
:101E30002A280ED0022128780246303A092A15D8DD
:101E4000009A0A235A43303A80180C436D1C0090C4
:101E5000F1E701CF0090002805DA01204003044398
:101E6000009840420090022004436D1C28782E28E0
:101E700015D10420044368786D1C2A280AD101CFAB
:101E80006D1C02900BE002990A2251433039401830
:101E90006D1C02902878014630390929F3D9287839
:101EA0006C2810D006DC4C281AD068280ED06A287E
:101EB00017D104E0742813D07A2812D110E0012041
:101EC000400504430CE00121090501E00321090557
:101ED0000C436978814203D10120000524186D1C50
:101EE0006D1C287803906E281ED00CDC632831D03E
:101EF00004DC00288AD0582811D1B2E064287BD0B5
:101F000069280CD178E073282DD004DC6F2870D0BC
:101F1000702804D1A7E075286CD078286BD0149A6B
:101F200013999047761C62E06002400F022807D0A8
:101F300003280AD0042838680AD006603F1D56E0FE
:101F40003868F11706604160F8E738680680F5E701
:101F50000670F3E73878694608740020487404A8CE
:101F60000390012003E0386803900020C0433F1D28
:101F700061070FD5002101E00199491C029A0191E6
:101F8000914213DA8142F7DB019A0399895C0029B7
:101F9000F2D10BE0002101E00199491C019181423D
:101FA000FADB019A0399895C0029F5D1019900981F
:101FB000139A401A00902146149B00F03BF90199B6
:101FC0008019461807E0039803990078491C03918B
:101FD000149A139990470198401E0190401CF2D129
:101FE0002146149B139A009800F014F986196D1C71
:101FF00009E741E033E034E00A2000210490059134
:102000006002410F022905D001CFC217944603296F
:1020100005D007E0FF1DFF08FF0003CF06E000B278
:10202000C2179446042902D140B2C1178C4600223F
:102030006146944506DA0A460021404291418C46A9
:102040002D2102E0210504D52B216A4611760121BC
:1020500003E0E10701D02021F7E7019154E00A20D5
:102060000BE0102009E0102004900021042004431C
:1020700008200591029003E00820002105910490BA
:102080006002410F022905D001CF002294460329A6
:1020900006D006E0FF1DFF08FF0003CF8C4603E0DB
:1020A00080B2042900D1C0B20021019121072BD5B3
:1020B0000399702906D0049A1021059B4A401A43BF
:1020C00005D00EE040216A461176012108E0614604
:1020D000014306D030216A461176039951760221D8
:1020E0000191049A0821059B4A401A430CD161468C
:1020F000014301D1610707D530216A4611760121DC
:1021000001910299491E02910399582904D037A1DF
:1021100003910FA90F910DE039A1F9E76146059BE5
:10212000049AFDF7F9FF039B8C469B5C0F9A521EA5
:102130000F92137061460143F0D10F9807A9081A56
:1021400020300390600704D50120000484430298E6
:1021500001E0012002900399884201DD401A00E06D
:10216000002041180290019809180098401A009028
:10217000E00306D42146149B139A009800F05AF805
:1021800086190020049008E006A9085C149A1399A7
:1021900090470498401C761C049001998842F3DB18
:1021A000E0030CD52146149B139A009800F042F8E6
:1021B000861904E0149A302013999047761C0299EE
:1021C000481E02900029F5DC08E00F980F9900786E
:1021D000491C0F91149A13999047761C0399481E35
:1021E00003900029F1DCFBE609280100303132338D
:1021F0003435363738396162636465660000000043
:10220000303132333435363738394142434445462C
:1022100000000000F8B5044600251E461746880455
:1022200004D405E039462020B0476D1C641EF9D562
:102230002846F8BDFFB50446002581B01E46C803F8
:1022400001D5302700E02027880404D505E0384672
:102250000399B0476D1C641EF9D5284605B0F0BD42
:102260000A68531C0B601070704700008AB000248D
:102270000094142102A80194FDF796FFFEF72CFCB0
:10228000FFF72FFBFFF7CEFA2A48416901221143DD
:102290004161406910400022079011460920FEF775
:1022A0006DFC0920FEF75EFC24480794224908943F
:1022B0000160234984604160C910C160802181614F
:1022C000FEF7BEFF079407A91C480894FEF788FF95
:1022D000FFF7E8FAFFF768FA002211461120FEF72F
:1022E0004DFC1120FEF73EFC002202210520FEF7E6
:1022F00045FC0520FEF736FC002201211B20FEF7DD
:102300003DFC1B20FEF72EFC0C4804226946403899
:10231000FEF7D2F900980BA1020C83B202A8FFF7D6
:1023200007FD064814231A4602A94030FFF7D2F9E8
:10233000F0E70000001002400010004058000020AC
:102340003F1F0000253478207C7C202534780A0D3E
:102350000000000000000000000000000102030473
:102360000607080900000000010203048C2300088E
:102370000000002018000000CC1D0008A423000865
:102380001800002048050000DC1D000800000000C7
:102390000000000001000000040000000000000038
:0423A00000127A00AD
:04000005080000BD32
:00000001FF
