:020000040800F2
:1000000028040020D1000008850A0008010A000821
:1000100000000000000000000000000000000000E0
:10002000000000000000000000000000890A000835
:100030000000000000000000870A00088B0A00088A
:10004000E3000008E3000008E3000008E300000804
:10005000E3000008E3000008E3000008E3000008F4
:10006000E3000008E3000008E3000008E3000008E4
:10007000E3000008E3000008E3000008E3000008D4
:10008000E3000008E300000800000000E3000008AF
:10009000E3000008E3000008E3000008E3000008B4
:1000A000E3000008E3000008E3000008E3000008A4
:1000B000E300000800000000E30000080348854654
:1000C00000F08EF800480047650B00082804002067
:1000D0000448804704480047FEE7FEE7FEE7FEE7E6
:1000E000FEE7FEE7CF0A0008BD00000830B50B466A
:1000F000014600202022012409E00D46D5409D4202
:1001000005D31D469540491B254695404019154687
:10011000521E002DF1DC30BDF0B51FB406460020A4
:1001200082B005464024019100901BE001992246CF
:100130000F46304600F020F8049A059B801A99413A
:1001400010D310461946224600F039F8361A8F416E
:100150000197224601200021009F00F030F8381856
:100160004D4100902046641E0028DFDC019B009872
:100170002946324607B0F0BD10B5202A04DB0846F8
:10018000203AD040002110BD0B46D340D04020245F
:10019000A21A91400843194610BDD2B201E0027084
:1001A000401C491EFBD270470022F6E710B51346EB
:1001B0000A4604461946FFF7F0FF204610BD10B569
:1001C000202A04DB0146203A9140002010BD9140D6
:1001D00020239C1A0346E3401943904010BD0000C1
:1001E000064C0125064E05E0E36807CC2B430C3C8A
:1001F00098471034B442F7D3FFF764FFAC0B000804
:10020000CC0B000870B54379012B13D00125457143
:1002100002230371066834683E2393409C430B68B5
:1002200049680B43934023433360057100214171BA
:10023000084670BD022070BD70B5040004D020795E
:100240000025002802D005E0012070BD6571204620
:1002500000F008F8022020712561012020710020A3
:1002600070BD000010B586B0044614216846FFF743
:100270009BFF10492068884219D10F48C269410488
:100280000A43C261C2690A400592426909130A43DE
:1002900042614069084005901020009003200190C1
:1002A0000020029009206946C00600F007F806B059
:1002B00010BD00000074004000100240F8B500239B
:1002C0008DE001249C40A44622407DD04C68022C45
:1002D00001D0122C0CD1DC08A40027183C6A5D0761
:1002E000ED0E0F26AE40B4430E69AE4026433E628B
:1002F00005685E000324B4400F79A543BF07BF0F14
:10030000B7402F4307604D68012D05D0022D03D063
:10031000112D01D0122D0ED18568CF68A543B740AD
:100320002F43876047686546AF430D79ED06ED0FB3
:100330009D403D434560C568A5438C68B4402C434F
:10034000C4604C68E40049D5284CA56901263543B2
:10035000A561A4699D0834400094254CAD002F1977
:10036000BC689D072E0F0F25B540AC430925ED064F
:10037000A84201D100250FE01E4DA84201D1012560
:100380000AE01D4DA84201D1022505E01B4DA842FF
:1003900001D1032500E00525B5402543BD60184C7B
:1003A00025684E689543F60300D5154325606568BA
:1003B0004E689543B60300D515436560A5684E6841
:1003C0009543F60202D500E008E01543A560E56814
:1003D0004E689543B60200D51543E5605B1C0A687C
:1003E0001446DC4000D06CE7F8BD0000001002406D
:1003F000000001400004004800080048000C0048CC
:1004000000040140002A01D0816170478162704779
:1004100001488068704700000000002002488168A1
:1004200002788918816070470000002010B50648E6
:100430000168102211430160002000F007F800F06D
:1004400027F8002010BD00000020024070B50446CF
:100450000D4D7D202978C000FFF748FE01460B486E
:100460000068FFF743FE00F0B3FA002809D1042C1E
:1004700007D200222146401E00F01EF800206C60CA
:1004800070BD012070BD0000000000200C000020A5
:1004900008B50848816901221143816181691140D1
:1004A0000091C26901040A43C261C069084000901A
:1004B00008BD00000010024010B500F021FB10BD87
:1004C000F8B50F46060059D03A4D2868C007C00F4E
:1004D000B84209D22868400840003843286028689C
:1004E000C007C00FB84249D13068334C81070CD5E2
:1004F000400704D56068072109020843606060680E
:10050000F0218843B168084360603078C00726D086
:10051000706801280ED0216802280ED089070029B2
:100520002CDA61688908890001436160FFF770FF78
:1005300000900DE021688903F1E78901EFE7FFF7FB
:1005400067FF0099411A1D48814201D90320F8BD77
:1005500060680C210840716889008842EFD12868E2
:10056000C007C00FB8420BD9286840084000384384
:1005700028602868C007C00FB84201D00120F8BD2C
:100580003078400706D56068072109028843F16882
:100590000843606000F018F86168094A0906090F0D
:1005A000515CC840074908600020FFF74FFF00205A
:1005B000F8BD000000200240001002408813000037
:1005C0009C0B00080C00002010B514A30FCB88B0C2
:1005D0006C460FC415A30FCB0FC4184A51680C20EA
:1005E0000B4603401648042B16D0082B14D18B025F
:1005F0001B0F6C46E45CD26A04AB1207120F9A5CC4
:10060000C90305D500231946FFF786FD214601E001
:1006100020460C4900F05CFA08B010BD0203040546
:10062000060708090A0B0C0D0E0F10100102030437
:1006300005060708090A0B0C0D0E0F1000100240EA
:1006400000127A0000093D00FEB5040070D0207849
:10065000DC4DC0074AD068680007800F012807D02A
:1006600068680007800F022809D16868C00306D5B2
:10067000286880033AD560680028E7D036E06168D2
:10068000012914D001208004002901D0052914D0AB
:100690002A68012109048A432A6029688143296064
:1006A0006068002816D0FFF7B3FE06460EE0286803
:1006B0000121090408432860F2E729680143296001
:1006C000F5E7FFF7A5FE801B64286ED82868800335
:1006D000F7D50BE0FFF79CFE064604E0FFF798FE17
:1006E000801B6428F1D828688003F7D4207801267D
:1006F000800700283CDA68680007800F07D0686828
:100700000007800F022809D16868C00306D4286852
:10071000800716D5E06801280AD112E0E0680028B9
:10072000286816D030432860FFF772FE074605E0C0
:1007300043E1FFF76DFEC01B0228C6D8286880077A
:10074000F7D52868F82188432169C9000843286043
:100750000EE0400840002860FFF75AFE074604E01C
:10076000FFF756FEC01B0228AFD828688007F7D4D1
:100770002078000722D5E0690028686A0ED030434F
:100780006862FFF745FE074604E0FFF741FEC01B25
:1007900002289AD8686A8007F7D50FE04008400021
:1007A0006862FFF735FE074605E09DE0FFF730FE83
:1007B000C01B022889D8686A8007F7D420780427EC
:1007C0004007002860DA00200190E869C00008D4E2
:1007D000E969B8060143E961E96901400120009136
:1007E000019079480168C90511D401688215114347
:1007F0000160FFF70DFE009005E0FFF709FE00998C
:10080000401A642870D870480068C005F5D5A06803
:1008100001280AD0002801D0052810D0286A4008F5
:1008200040002862286AB84301E0286A3043286201
:10083000A068002812D0FFF7EBFD00900AE0286ABC
:1008400038432862F1E7FFF7E3FD0099411A5F485A
:10085000814249D8286A8007F5D50DE0FFF7D8FD19
:10086000009006E0FFF7D4FD0099411A57488142F5
:100870003AD8286A8007F5D40198002804D0E9699D
:10088000012000078143E9612078C00635D5606901
:1008900001280CD0401D686B23D038436863686B17
:1008A000400840006863FFF7B3FD064622E0686B2E
:1008B00038436863686B30436863FFF7A9FD0646F9
:1008C00004E0FFF7A5FD801B02285BD8686B80075A
:1008D000F7D5686BF8218843A169C90008436863AC
:1008E0000BE0B8436863F4E74CE0FFF791FD801B31
:1008F000022847D8686B8007F7D4206A00285ED0AA
:1009000069680907890F022942D0012636060228A4
:10091000286805D0B0432860FFF77AFD044633E02D
:10092000B0432860FFF774FD074604E0FFF770FD51
:10093000C01B022826D828688001F7D4E86AE16A3B
:10094000000900010843E862616AA06A0843696817
:100950003D221204914308436860286830432860B0
:10096000FFF756FD044604E0FFF752FD001B022886
:1009700008D828688001F7D521E0FFF749FD001B62
:10098000022801D90320FEBD28688001F5D416E0B5
:100990000128F8D06868E96A01221204636A0240FB
:1009A0009A420AD10907E26A090F914205D10F2143
:1009B00089040840A16A884201D00120FEBD0020C0
:1009C000FEBD0000001002400070004088130000CF
:1009D000094910B5401E884201D9012010BD074CBD
:1009E00060610321081F00F08BF80020A061072040
:1009F0002061002010BD0000FFFFFF0000E000E0CC
:100A0000FEE7000070B586B014216846FFF7CCFB06
:100A10001A4842690121C9040A43426142690A40F5
:100A200005924269C9000A43426142690A4005923F
:100A3000426949110A4342614069114E084003214D
:100A40000590012209023046FFF7DCFCFF2001304F
:100A5000009002200124002502900194694603952C
:100A60003046FFF72BFC6002009001946946039525
:100A700002943046FFF722FC06B070BD0010024021
:100A80000008004870477047704710B5FFF7C6FC74
:100A900010BD30B591B030216846FFF785FB0024CA
:100AA00005200D9401250F9401900C940E9400954F
:100AB00008946846FFF7C8FD07200C900E940021AB
:100AC0000D950F940CA8FFF7FBFC11B030BD7047DB
:100AD000F8B5040C8BB2264682B25E430D0C10466C
:100AE000370C5843360480190021794116466E436D
:100AF000370C36048019794126466E438919F8BDB2
:100B00008307FF22DB0E9A408907090E99400028CF
:100B100008DB830809489B001B18186890430843AA
:100B2000186070470007000F0838830804489B00CE
:100B30001B18D86990430843D861704700E400E06F
:100B400000ED00E002E008C8121F08C1002AFAD137
:100B500070477047002001E001C1121F002AFBD13D
:100B6000704700001CB5FFF761FCFFF792FFFFF72D
:100B700049FF00240849009406480194086008468B
:100B8000FFF75AFB00940022694603480194FFF7DF
:100B900039FBFEE700740040100000200000000058
:100BA000000000000102030406070809CC0B00083E
:100BB0000000002010000000440B0008DC0B0008BF
:100BC0001000002018040000540B00080100000071
:0C0BD000040000000000000000127A0089
:04000005080000BD32
:00000001FF
