:020000040800F2
:10000000D8040020D1000008451100086B1000083A
:1000100000000000000000000000000000000000E0
:10002000000000000000000000000000491100086E
:100030000000000000000000471100084B110008FC
:10004000E3000008E3000008E3000008E300000804
:10005000E300000805020008E30000080F020008A2
:10006000E3000008E3000008E3000008E3000008E4
:10007000E3000008E3000008E3000008E3000008D4
:10008000E3000008A911000800000000E3000008D8
:10009000E3000008E3000008E3000008E3000008B4
:1000A000E3000008E3000008E300000891150008E1
:1000B000E300000800000000E30000080348854654
:1000C00000F08EF80048004735160008D8040020DC
:1000D0000448804704480047FEE7FEE7FEE7FEE7E6
:1000E000FEE7FEE7A5110008BD00000830B50B468D
:1000F000014600202022012409E00D46D5409D4202
:1001000005D31D469540491B254695404019154687
:10011000521E002DF1DC30BDF0B51FB406460020A4
:1001200082B005464024019100901BE001992246CF
:100130000F46304600F020F8049A059B801A99413A
:1001400010D310461946224600F039F8361A8F416E
:100150000197224601200021009F00F030F8381856
:100160004D4100902046641E0028DFDC019B009872
:100170002946324607B0F0BD10B5202A04DB0846F8
:10018000203AD040002110BD0B46D340D04020245F
:10019000A21A91400843194610BDD2B201E0027084
:1001A000401C491EFBD270470022F6E710B51346EB
:1001B0000A4604461946FFF7F0FF204610BD10B569
:1001C000202A04DB0146203A9140002010BD9140D6
:1001D00020239C1A0346E3401943904010BD0000C1
:1001E000064C0125064E05E0E36807CC2B430C3C8A
:1001F00098471034B442F7D3FFF764FFDC160008C9
:10020000FC16000810B5012000F066F810BD10B50E
:100210000120800200F060F80120C00200F05CF8CC
:1002200010BD70B50024014620314A78022A03D05F
:1002300004218163012416E0026813680E25AB4394
:100240001360026813685B085B0013600122056C91
:100250001346AB40C56B6B604A7000220A70416B5D
:10026000002900D08847204670BD000070B50446C4
:1002700000F0EEF80546601C02D00448007824180F
:1002800000F0E6F8401BA042FAD370BD0800002041
:10029000012110B549020E4B4A008C00012803D001
:1002A00090420CD101220EE00122184600F0CAF85B
:1002B000084800F0BBFC0A20FFF7D8FF10BDA042A1
:1002C000FCD101221102184600F0BCF810BD00005C
:1002D000000800481800002010B504494A6902428D
:1002E00002D04861FFF7D4FF10BD000000040140B8
:1002F000F8B500238DE001249C40A44622407DD027
:100300004C68022C01D0122C0CD1DC08A400271858
:100310003C6A5D07ED0E0F26AE40B4430E69AE4059
:1003200026433E6205685E000324B4400F79A5436E
:10033000BF07BF0FB7402F4307604D68012D05D0A1
:10034000022D03D0112D01D0122D0ED18568CF685A
:10035000A543B7402F43876047686546AF430D7993
:10036000ED06ED0F9D403D434560C568A5438C6893
:10037000B4402C43C4604C68E40049D5284CA569BE
:1003800001263543A561A4699D0834400094254C9D
:10039000AD002F19BC689D072E0F0F25B540AC434B
:1003A0000925ED06A84201D100250FE01E4DA84207
:1003B00001D101250AE01D4DA84201D1022505E029
:1003C0001B4DA84201D1032500E00525B54025437A
:1003D000BD60184C25684E689543F60300D515435B
:1003E000256065684E689543B60300D51543656082
:1003F000A5684E689543F60202D500E008E0154373
:10040000A560E5684E689543B60200D51543E560E2
:100410005B1C0A681446DC4000D06CE7F8BD0000A5
:10042000001002400000014000040048000800489D
:10043000000C00480004014042690A4200D009044F
:1004400081617047002A01D08161704781627047E5
:100450000148806870470000080000200248816859
:1004600002788918816070470800002010B506489E
:100470000168102211430160002000F007F800F02D
:1004800027F8002010BD00000020024070B504468F
:100490000D4D7D202978C000FFF728FE01460B484E
:1004A0000068FFF723FE00F04BFB002809D1042C65
:1004B00007D200222146401E00F02AF800206C607E
:1004C00070BD012070BD0000080000201400002055
:1004D00008B5084881690122114381618169114091
:1004E0000091C26901040A43C261C06908400090DA
:1004F00008BD000000100240002805DBC106C90E3F
:1005000001208840014908607047000000E100E0D8
:1005100010B501F05DF810BDF8B505460068394C1E
:10052000C00352D5E0690026C00007D4E169200469
:100530000143E161E169014001260091324801680F
:10054000C90510D40168821511430160FFF780FFCF
:10055000074604E0FFF77CFFC01B642824D82A4824
:100560000068C005F6D5206A03273F02384020D036
:100570006968394081421CD0206A226AB84301214F
:1005800009040A432262226A8A4322622062C00767
:100590000FD0FFF75DFF009008E0FFF759FF0099CB
:1005A000411A1A48814201D90320F8BD206A800708
:1005B000F3D5206A6968B84308432062002E04D04E
:1005C000E169012000078143E1612878C00705D077
:1005D000206BA96880088000084320632878800683
:1005E00005D5206B10218843E968084320632888DB
:1005F000400505D5206B40218843296908432063C5
:100600000020F8BD00100240007000408813000078
:10061000F8B50F46060059D03A4D2868C007C00FFC
:10062000B84209D22868400840003843286028684A
:10063000C007C00FB84249D13068334C81070CD590
:10064000400704D5606807210902084360606068BC
:10065000F0218843B168084360603078C00726D035
:10066000706801280ED0216802280ED08907002961
:100670002CDA61688908890001436160FFF7E8FEB0
:1006800000900DE021688903F1E78901EFE7FFF7AA
:10069000DFFE0099411A1D48814201D90320F8BDAF
:1006A00060680C210840716889008842EFD1286891
:1006B000C007C00FB8420BD9286840084000384333
:1006C00028602868C007C00FB84201D00120F8BDDB
:1006D0003078400706D56068072109028843F16831
:1006E0000843606000F028F86168094A0906090FAC
:1006F000515CC840074908600020FFF7C7FE002092
:10070000F8BD0000002002400010024088130000E5
:10071000C416000814000020044805490068496810
:10072000044A4905490F515CC84070471400002035
:1007300000100240D416000810B514A30FCB88B0E7
:100740006C460FC415A30FCB0FC4184A51680C2078
:100750000B4603401648042B16D0082B14D18B02ED
:100760001B0F6C46E45CD26A04AB1207120F9A5C52
:10077000C90305D500231946FFF7CEFC214601E049
:1007800020460C4900F00CFF08B010BD0203040520
:10079000060708090A0B0C0D0E0F101001020304C6
:1007A00005060708090A0B0C0D0E0F100010024079
:1007B00000127A0000093D00FEB5040070D02078D8
:1007C000DC4DC0074AD068680007800F012807D0B9
:1007D00068680007800F022809D16868C00306D541
:1007E000286880033AD560680028E7D036E0616861
:1007F000012914D001208004002901D0052914D03A
:100800002A68012109048A432A60296881432960F2
:100810006068002816D0FFF71BFE06460EE0286829
:100820000121090408432860F2E72968014329608F
:10083000F5E7FFF70DFE801B64286ED8286880035B
:10084000F7D50BE0FFF704FE064604E0FFF700FED5
:10085000801B6428F1D828688003F7D4207801260B
:10086000800700283CDA68680007800F07D06868B6
:100870000007800F022809D16868C00306D42868E1
:10088000800716D5E06801280AD112E0E068002848
:10089000286816D030432860FFF7DAFD074605E0E8
:1008A00043E1FFF7D5FDC01B0228C6D828688007A2
:1008B000F7D52868F82188432169C90008432860D2
:1008C0000EE0400840002860FFF7C2FD074604E044
:1008D000FFF7BEFDC01B0228AFD828688007F7D4F9
:1008E0002078000722D5E0690028686A0ED03043DE
:1008F0006862FFF7ADFD074604E0FFF7A9FDC01BE6
:1009000002289AD8686A8007F7D50FE040084000AF
:100910006862FFF79DFD074605E09DE0FFF798FD43
:10092000C01B022889D8686A8007F7D4207804277A
:100930004007002860DA00200190E869C00008D470
:10094000E969B8060143E961E969014001200091C4
:10095000019079480168C90511D4016882151143D5
:100960000160FFF775FD009005E0FFF771FD00994C
:10097000401A642870D870480068C005F5D5A06892
:1009800001280AD0002801D0052810D0286A400884
:1009900040002862286AB84301E0286A3043286290
:1009A000A068002812D0FFF753FD00900AE0286AE3
:1009B00038432862F1E7FFF74BFD0099411A5F4881
:1009C000814249D8286A8007F5D50DE0FFF740FD40
:1009D000009006E0FFF73CFD0099411A574881421C
:1009E0003AD8286A8007F5D40198002804D0E9692C
:1009F000012000078143E9612078C00635D5606990
:100A000001280CD0401D686B23D038436863686BA5
:100A1000400840006863FFF71BFD064622E0686B54
:100A200038436863686B30436863FFF711FD06461F
:100A300004E0FFF70DFD801B02285BD8686B800780
:100A4000F7D5686BF8218843A169C900084368633A
:100A50000BE0B8436863F4E74CE0FFF7F9FC801B58
:100A6000022847D8686B8007F7D4206A00285ED038
:100A700069680907890F022942D001263606022833
:100A8000286805D0B0432860FFF7E2FC044633E055
:100A9000B0432860FFF7DCFC074604E0FFF7D8FC12
:100AA000C01B022826D828688001F7D4E86AE16ACA
:100AB000000900010843E862616AA06A08436968A6
:100AC0003D2212049143084368602868304328603F
:100AD000FFF7BEFC044604E0FFF7BAFC001B022847
:100AE00008D828688001F7D521E0FFF7B1FC001B8A
:100AF000022801D90320FEBD28688001F5D416E044
:100B00000128F8D06868E96A01221204636A024089
:100B10009A420AD10907E26A090F914205D10F21D1
:100B200089040840A16A884201D00120FEBD00204E
:100B3000FEBD00000010024000700040881300005D
:100B4000094910B5401E884201D9012010BD074C4B
:100B500060610321081F00F03BFD0020A061072019
:100B60002061002010BD0000FFFFFF0000E000E05A
:100B700070477047F0B502462032137F012B21D019
:100B8000012515770223537706687468B3687027C8
:100B9000BC430F682743776000680B4CA04208D025
:100BA000AC07A04205D0094CA04202D0084CA0429C
:100BB00004D180244968A3431943816055770020FC
:100BC0001077F0BD0220F0BD002C01400004004071
:100BD0000040014070B5040005D025462035687FEF
:100BE000002802D006E0012070BD002028772046B2
:100BF00000F00AF802206877211D206800F0DCFA76
:100C000001206877002070BD08B50068054988425A
:100C100007D10548C26910210A43C261C069084072
:100C2000009008BD00100040001002400268D36828
:100C300001210B43D360006882685207520F062AD5
:100C400002D002680A430260002070470168CA6847
:100C500052085200CA600068016A064A114207D170
:100C6000016A9210114203D10168490849000160EC
:100C70000020704711110000704770B504460068ED
:100C800001690025C9438907002915DBC168C943EB
:100C9000890711D4E91E016101202077206880694D
:100CA0008007204602D0FFF7E7FF04E000F096F847
:100CB000204600F094F8257720680169C943490768
:100CC00017D4C168C943490713D40421C94301613A
:100CD00002202077206880698005800F204602D09E
:100CE000FFF7CAFF04E000F079F8204600F077F83B
:100CF000257720680169C943090716D4C168C9432B
:100D0000090712D40821C943016104202077206813
:100D1000C0698007204602D0FFF7AEFF04E000F074
:100D20005DF8204600F05BF8257720680169C9432B
:100D3000C90617D4C168C943C90613D41021C943D1
:100D40000161082020772068C0698005800F204657
:100D500002D0FFF791FF04E000F040F8204600F0D9
:100D60003EF8257720680169C943C90708D1C168E1
:100D7000C943C90704D1891E0161204600F030F83B
:100D800020680169C943090609D4C168C943090635
:100D900005D48021C94301612046FFF7E9FE2068A0
:100DA0000169C943490609D4C168C943490605D444
:100DB0004021C9430161204600F03AF820680169EA
:100DC000C943890609D4C168C943890605D42021CD
:100DD000C94301612046FFF7CCFE70BD70477047E4
:100DE00070B500680E49884209D10E4C81156268C1
:100DF0000D48032A04DA521C6260FFF71DFB70BD28
:100E000000220546FFF71EFB012100224902284669
:100E1000FFF718FB002060600448FFF717FF70BD64
:100E200000100040000000200008004818000020CA
:100E30007047704770470000F8B502680446D069F3
:100E400011689368524D05402E462025002E68D02B
:100E5000DE07F60FFF2721370F40374375D0C7074E
:100E600006D0CF0504D501271762E26F3A43E26747
:100E7000820708D5DA0706D0276802223A62E26FB5
:100E800004273A43E267420708D5DA0706D0236809
:100E900004221A62E26F02231A43E267020709D5AD
:100EA0000A462A40324305D0236808221A62E36FBB
:100EB0001343E367020508D54A0106D501222368DA
:100EC000D2021A62E26F2A43E267E26F002A30D050
:100ED000800606D5880604D5216E002901D020465B
:100EE0008847E06F21688968490602D428210842B2
:100EF00024D0204600F04AFA20688168490619D5B6
:100F00008168402291438160E06E002812D021491F
:100F10004163E06EFFF785F900280AD0E06E416B6F
:100F200006E0860611D58E060FD5216E1DE02046FF
:100F30008847F8BD2046FFF77DFFF8BD2046FFF744
:100F400079FF0020E067F8BDFFE7C60208D55B0225
:100F500006D50120000510622046FFF76AFFF2E780
:100F6000030605D50B0603D5616E0029DFD1EAE73C
:100F70004006E8D54806E6D51368204640218B4355
:100F8000136065670021616600F06EF8DBE7000022
:100F90000F0800007913000810B5040003D0606F3B
:100FA000002802D007E0012010BD0021702001556B
:100FB000204600F027F8242060672068016849086F
:100FC00049000160204600F0F1F90128ECD0606A88
:100FD000002802D0204600F039F920684168092233
:100FE000D20291434160206881682A229143816046
:100FF00020680168012211430160204600F08CF94D
:1010000010BD000010B586B0044614216846FFF7F5
:10101000CBF81349206888421FD112488269012108
:1010200089030A43826182690A4005924269C900C4
:101030000A43426140690840059003204002009045
:1010400002200190002002900320039001200490D0
:1010500009206946C006FFF74BF906B010BD000035
:1010600000380140001002407047FEE7F0B587B03D
:1010700014216846FFF798F8214842690121C90404
:101080000A43426142690A400592426989100A4353
:10109000426142690A400592426949000A4342613D
:1010A000406903260840174F36020590002231465A
:1010B0003846FFF7C7F901241348019000946946A8
:1010C00002943846FFF714F9002509200195694676
:1010D000C00602950094FFF70BF9B00000900B4892
:1010E0000190694602940A48FFF702F902956946A1
:1010F0003846009603950194FFF7FAF807B0F0BD63
:1011000000100240000800480000111000002110EB
:101110000004004810B50A4808490160E12149026D
:10112000416000218160C16001618161C1610C2267
:10113000016242614162FFF72FFF10BD003801409C
:101140005800002070477047704710B5FFF786F9C8
:1011500010BD30B595B030216846FFF725F8002462
:101160000C940D940E94142110A80F94FFF71CF802
:1011700002200090012510200395049008946846F1
:10118000FFF71AFB07200C900D940E9400210F948A
:101190000CA8FFF73DFA10A810951294FFF7BCF9C0
:1011A00015B030BD7047000010B50248FFF765FD6F
:1011B00010BD000018000020F0B502681D4B01248E
:1011C000A4071D4D984203D0A04201D0A84203D1EC
:1011D0007026B2434E683243184E194F98420DD0D4
:1011E000A0420BD0A84209D0164CA04206D0B04273
:1011F00004D0B84202D0144CA04204D103242402EB
:10120000A243CC6822438024A2434C69224302605B
:101210008A68C2620A688262984206D0B04204D0EC
:10122000B84202D0084A904201D109690163012104
:101230004161F0BD002C014000040040004001402D
:1012400000440140002000400048014010B5818C5E
:10125000C90707D001684A6801235B049A43836A7F
:101260001A434A60818C890707D501684A680123BF
:101270001B049A43C36A1A434A60818C490707D505
:1012800001684A6801239B049A43036B1A434A602E
:10129000818C090707D501684A680123DB039A435B
:1012A000436B1A434A60818CC90607D5026891686E
:1012B00001231B039943836B19439160818C890639
:1012C00007D501688A6801235B039A43C36B1A43FD
:1012D0008A60818C490612D503685A680121090584
:1012E000046C8A4322435A60026C8A4207D1026826
:1012F000516803235B059943436C19435160818C0A
:10130000090607D501684A680123DB04806C9A430B
:1013100002434A6010BD0000F8B500260446C667C7
:10132000FFF796F8054620680068124F000709D5B8
:1013300001212B46002249052046009700F0DAF8EB
:1013400000280DD12068006840070BD501212B46ED
:10135000002289052046009700F0CCF8002801D033
:101360000320F8BD20206067A06760342674002049
:10137000F8BD0000FFFFFF0110B5406A00220146E2
:1013800040314A834A82FFF755FD10BD01680A6863
:10139000FF2321339A430A6001688A685208520089
:1013A0008A602021816700210166704770B504467C
:1013B00080682169E2690843616900251143226858
:1013C00008431168444B1940014311602168486883
:1013D000032212039043E26810434860A169206A27
:1013E0002268084391680B231B02994301439160D3
:1013F0003A492068884210D13948006B8007800F35
:1014000011D0012805D0022805D003280AD10220D6
:1014100009E0042007E0082005E03249884201D1B4
:10142000002000E010200122E169D2032E4E9142FB
:1014300028D1002806D0022807D0042817D0082871
:1014400044D11AE0FFF768F913E06168274A4808B9
:101450008018FEF74BFE80B201461039B14235D8F4
:101460002149491C01400007400F084321E0FFF7D4
:1014700063F9616840004A08EAE7616801224808A8
:101480001204E5E7002806D0022807D0042813D06C
:1014900008281BD116E0FFF73FF90FE06168144AF6
:1014A000480811E0FEF722FE80B201461039B14231
:1014B0000CD82168C8600AE0FFF73EF961684A0865
:1014C0001018EFE7616848088018EBE70125002055
:1014D00020666066284670BDF369FFFF0038014052
:1014E0000010024000440040EFFF00000024F40020
:1014F00000127A00FFB581B005460F4604466035FC
:101500000A9E38E0701C36D0FEF7A2FF0499401AFC
:10151000B04221D8002E1FD02068016849072AD583
:10152000C069C043000526D401202168C0020862BA
:1015300020680168FF22A132914301602068816820
:1015400049084900816020206067A067E0670020AB
:101550002874032005B0F0BD20680168FF22A13285
:10156000914301602068816849084900816020201A
:101570006067A067EBE72068C1693846884305D0FB
:10158000002103988142BDD00020E3E70121F8E764
:1015900010B50248FFF750FC10BD000058000020B5
:1015A000F8B5040C8BB2264682B25E430D0C104691
:1015B000370C5843360480190021794116466E4392
:1015C000370C36048019794126466E438919F8BDD7
:1015D0008307FF22DB0E9A408907090E99400028F5
:1015E00008DB830809489B001B18186890430843D0
:1015F000186070470007000F0838830804489B00F4
:101600001B18D86990430843D861704700E400E094
:1016100000ED00E002E008C8121F08C1002AFAD15C
:1016200070477047002001E001C1121F002AFBD162
:10163000704700001CB5FEF719FFFFF78AFDFFF7A2
:1016400015FD00241C4800941A49019401601B49AF
:10165000846041601A49C16080218161FFF7BAFA54
:101660000094694614480194FFF784FAFFF752FD8D
:10167000002211461120FEF74BFF1120FEF73CFF20
:10168000002211460520FEF743FF0520FEF734FF38
:10169000002211461B20FEF73BFF1B20FEF72CFF0C
:1016A000002211460720FEF733FF0720FEF724FF34
:1016B000FEE7000000100040180000203F1F00005F
:1016C00006270000000000000000000001020304E3
:1016D000060708090000000001020304FC160008C8
:1016E000000000201800000014160008141700085D
:1016F00018000020C00400002416000800000000AC
:1017000000000000010000000400000000000000D4
:0417100000127A0049
:04000005080000BD32
:00000001FF
