:020000040800F2
:1000000028050020D1000008B11800084915000893
:1000100000000000000000000000000000000000E0
:10002000000000000000000000000000B5180008FB
:100030000000000000000000B3180008B718000816
:10004000E3000008E3000008E3000008E300000804
:10005000E300000805020008E3000008E3000008D0
:10006000E3000008E3000008E3000008E3000008E4
:10007000E3000008E3000008E3000008E3000008D4
:10008000E30000081919000800000000E300000860
:10009000E3000008E3000008E3000008E3000008B4
:1000A000E3000008E3000008E3000008011D000869
:1000B000E300000800000000E30000080348854654
:1000C00000F08EF8004800474D2200082805002067
:1000D0000448804704480047FEE7FEE7FEE7FEE7E6
:1000E000FEE7FEE715190008BD00000830B50B4615
:1000F000014600202022012409E00D46D5409D4202
:1001000005D31D469540491B254695404019154687
:10011000521E002DF1DC30BDF0B51FB406460020A4
:1001200082B005464024019100901BE001992246CF
:100130000F46304600F020F8049A059B801A99413A
:1001400010D310461946224600F039F8361A8F416E
:100150000197224601200021009F00F030F8381856
:100160004D4100902046641E0028DFDC019B009872
:100170002946324607B0F0BD10B5202A04DB0846F8
:10018000203AD040002110BD0B46D340D04020245F
:10019000A21A91400843194610BDD2B201E0027084
:1001A000401C491EFBD270470022F6E710B51346EB
:1001B0000A4604461946FFF7F0FF204610BD10B569
:1001C000202A04DB0146203A9140002010BD9140D6
:1001D00020239C1A0346E3401943904010BD0000C1
:1001E000064C0125064E05E0E36807CC2B430C3C8A
:1001F00098471034B442F7D3FFF764FFD8230008C0
:10020000F823000810B5012000F048F810BD70B5C3
:100210000024014620314A78022A03D00421816358
:10022000012416E0026813680E25AB4313600268D0
:1002300013685B085B0013600122056C1346AB403A
:10024000C56B6B604A7000220A70416B002900D0B8
:100250008847204670BD000070B5044600F0DAF80B
:100260000546601C02D004480078241800F0D2F83B
:10027000401BA042FAD370BD0800002010B5012831
:1002800007D141020122034800F0BEF8024800F005
:10029000D5FE10BD000800486400002010B50449D8
:1002A0004A69024202D04861FFF7E8FF10BD000032
:1002B00000040140F8B500238DE001249C40A446D1
:1002C00022407DD04C68022C01D0122C0CD1DC08CD
:1002D000A40027183C6A5D07ED0E0F26AE40B4431C
:1002E0000E69AE4026433E6205685E000324B440BA
:1002F0000F79A543BF07BF0FB7402F4307604D6875
:10030000012D05D0022D03D0112D01D0122D0ED1BB
:100310008568CF68A543B7402F4387604768654627
:10032000AF430D79ED06ED0F9D403D434560C56837
:10033000A5438C68B4402C43C4604C68E40049D5A4
:10034000284CA56901263543A561A4699D08344060
:100350000094254CAD002F19BC689D072E0F0F256A
:10036000B540AC430925ED06A84201D100250FE0B8
:100370001E4DA84201D101250AE01D4DA84201D120
:10038000022505E01B4DA84201D1032500E005250B
:10039000B5402543BD60184C25684E689543F6036B
:1003A00000D51543256065684E689543B60300D5B2
:1003B00015436560A5684E689543F60202D500E0D6
:1003C00008E01543A560E5684E689543B60200D580
:1003D0001543E5605B1C0A681446DC4000D06CE7FE
:1003E000F8BD000000100240000001400004004879
:1003F00000080048000C00480004014042690A421D
:1004000000D0090481617047002A01D081617047E2
:100410008162704701488068704700000800002032
:1004200070B5024640325378202B1CD11378012B33
:1004300019D00123137024245470046825689D4347
:100440002560046825681E03B54325600468256897
:100450000D43256000680168194301602020507039
:100460000020107070BD022070BD70B50246403291
:100470005378202B1BD11378012B18D00124147032
:100480002423537003681D68A5431D6005682B680D
:100490000F263602B3430902194329600068016838
:1004A00021430160202050700020107070BD022098
:1004B00070BD000070B5040006D025464035687850
:1004C0000026002802D005E0012070BD2E702046D5
:1004D00000F09AF9242068702068016849084900F2
:1004E00001600F216068090688432168086121685E
:1004F0008A680120C00382438A60E1680129A168FB
:1005000008D021229202114322689160E1680229F9
:1005100002D005E00143F7E701212268C9025160DA
:1005200021684A680F4B1A434A602168CA688243AF
:10053000CA60616920690843A1690902084321680A
:10054000C860216AE0690843216808602068016882
:100550000122114301606664202068702663AE703A
:10056000002070BD00800002FFB5054604464035FE
:10057000687883B0202875D10C98002814D00D9885
:10058000002811D0287801286CD001202870FFF7AE
:1005900041FF0746012200901923D103204601F0B4
:1005A00091F8002874D103E00120400260646FE0FC
:1005B000222068704020A870002666640C98606253
:1005C0000D98608566630E980090019704A90EC986
:1005D000204601F003F8002801D02E7058E0618D0C
:1005E0003448FF2905D9FF22228501231B060090EC
:1005F00006E0618D21850090208D0123C2B25B064B
:100600002046049901F04AF8009700220421204670
:100610000E9B01F057F800283AD12068406A616AC1
:100620000870606A401C6062208D401E81B2218586
:10063000608D401E6085608D00281FD000291DD16F
:1006400000970022802120460E9B01F03BF80028F5
:100650001ED1608DFF2806D9FF22228501231B06AB
:10066000009607E024E0608D20850096208D012310
:10067000C2B25B062046049901F010F8608D002894
:10068000C2D13A4620460E9901F043F8002802D024
:10069000012007B0F0BD20682021C16120684268B8
:1006A000054B1A4042606970AE702E700020F0E772
:1006B0000220EEE70024008000E800FEFFB50546BA
:1006C00004464035687883B0202872D10C98002801
:1006D00014D00D98002811D02878012869D0012065
:1006E0002870FFF797FE0746012200901923D103D7
:1006F000204600F0E7FF002871D103E0012040020E
:1007000060646CE0212068704020A8700026666458
:100710000C9860620D98608566630E980090019752
:1007200004A90EC9204600F089FF002801D02E70D0
:1007300055E0608DFF2805D9FF22228501231B0685
:10074000009606E0608D20850096208D0123C2B2C0
:100750005B062046049900F0A1FF3A4620460E9918
:1007600000F0FDFF00283AD1606A216800788862B5
:10077000606A401C6062608D401E6085208D401E56
:1007800080B22085618D00291FD000281DD10097DF
:100790000022802120460E9B00F094FF00281ED1ED
:1007A000608DFF2806D9FF22228501231B060096B3
:1007B00007E024E0608D20850096208D0123C2B2E1
:1007C0005B062046049900F069FF608D0028C4D1C3
:1007D0003A4620460E9900F09CFF002802D00120E6
:1007E00007B0F0BD20682021C16120684268054B38
:1007F0001A4042606970AE702E700020F0E702204F
:10080000EEE7000000E800FE10B586B004461421B3
:100810006846FFF7C9FC1249206888421ED1114C76
:1008200061690120800401436161616901400591B2
:10083000C02000901220019000200290032003901D
:100840000120049069460848FFF734FDE169012062
:1008500040050143E161E1690140059106B010BD29
:100860000054004000100240000400480248816823
:1008700002788918816070470800002010B506488A
:100880000168102211430160002000F007F800F019
:1008900027F8002010BD00000020024070B504467B
:1008A0000D4D7D202978C000FFF720FC01460B4844
:1008B0000068FFF71BFC00F04BFB002809D1042C5B
:1008C00007D200222146401E00F02AF800206C606A
:1008D00070BD012070BD0000080000201400002041
:1008E00008B508488169012211438161816911407D
:1008F0000091C26901040A43C261C06908400090C6
:1009000008BD000000100240002805DBC106C90E2A
:1009100001208840014908607047000000E100E0C4
:1009200010B501F021FA10BDF8B505460068394C44
:10093000C00352D5E0690026C00007D4E169200455
:100940000143E161E16901400126009132480168FB
:10095000C90510D40168821511430160FFF75AFDE3
:10096000074604E0FFF756FDC01B642824D82A4838
:100970000068C005F6D5206A03273F02384020D022
:100980006968394081421CD0206A226AB84301213B
:1009900009040A432262226A8A4322622062C00753
:1009A0000FD0FFF737FD009008E0FFF733FD009907
:1009B000411A1A48814201D90320F8BD206A8007F4
:1009C000F3D5206A6968B84308432062002E04D03A
:1009D000E169012000078143E1612878C00705D063
:1009E000206BA9688008800008432063287880066F
:1009F00005D5206B10218843E968084320632888C7
:100A0000400505D5206B40218843296908432063B0
:100A10000020F8BD00100240007000408813000064
:100A2000F8B50F46060059D03A4D2868C007C00FE8
:100A3000B84209D228684008400038432860286836
:100A4000C007C00FB84249D13068334C81070CD57C
:100A5000400704D5606807210902084360606068A8
:100A6000F0218843B168084360603078C00726D021
:100A7000706801280ED0216802280ED0890700294D
:100A80002CDA61688908890001436160FFF7C2FCC4
:100A900000900DE021688903F1E78901EFE7FFF796
:100AA000B9FC0099411A1D48814201D90320F8BDC3
:100AB00060680C210840716889008842EFD128687D
:100AC000C007C00FB8420BD928684008400038431F
:100AD00028602868C007C00FB84201D00120F8BDC7
:100AE0003078400706D56068072109028843F1681D
:100AF0000843606000F028F86168094A0906090F98
:100B0000515CC840074908600020FFF7C7FE00207D
:100B1000F8BD0000002002400010024088130000D1
:100B2000C0230008140000200448054900684968F3
:100B3000044A4905490F515CC84070471400002021
:100B400000100240D023000810B514A30FCB88B0CA
:100B50006C460FC415A30FCB0FC4184A51680C2064
:100B60000B4603401648042B16D0082B14D18B02D9
:100B70001B0F6C46E45CD26A04AB1207120F9A5C3E
:100B8000C90305D500231946FFF7C6FA214601E03F
:100B900020460C4901F0D0F808B010BD020304054E
:100BA000060708090A0B0C0D0E0F101001020304B2
:100BB00005060708090A0B0C0D0E0F100010024065
:100BC00000127A0000093D00FEB5040070D02078C4
:100BD000DC4DC0074AD068680007800F012807D0A5
:100BE00068680007800F022809D16868C00306D52D
:100BF000286880033AD560680028E7D036E061684D
:100C0000012914D001208004002901D0052914D025
:100C10002A68012109048A432A60296881432960DE
:100C20006068002816D0FFF7F5FB06460EE028683E
:100C30000121090408432860F2E72968014329607B
:100C4000F5E7FFF7E7FB801B64286ED82868800370
:100C5000F7D50BE0FFF7DEFB064604E0FFF7DAFB13
:100C6000801B6428F1D828688003F7D420780126F7
:100C7000800700283CDA68680007800F07D06868A2
:100C80000007800F022809D16868C00306D42868CD
:100C9000800716D5E06801280AD112E0E068002834
:100CA000286816D030432860FFF7B4FB074605E0FC
:100CB00043E1FFF7AFFBC01B0228C6D828688007B6
:100CC000F7D52868F82188432169C90008432860BE
:100CD0000EE0400840002860FFF79CFB074604E058
:100CE000FFF798FBC01B0228AFD828688007F7D40D
:100CF0002078000722D5E0690028686A0ED03043CA
:100D00006862FFF787FB074604E0FFF783FBC01B21
:100D100002289AD8686A8007F7D50FE0400840009B
:100D20006862FFF777FB074605E09DE0FFF772FB7F
:100D3000C01B022889D8686A8007F7D42078042766
:100D40004007002860DA00200190E869C00008D45C
:100D5000E969B8060143E961E969014001200091B0
:100D6000019079480168C90511D4016882151143C1
:100D70000160FFF74FFB009005E0FFF74BFB009988
:100D8000401A642870D870480068C005F5D5A0687E
:100D900001280AD0002801D0052810D0286A400870
:100DA00040002862286AB84301E0286A304328627C
:100DB000A068002812D0FFF72DFB00900AE0286AF7
:100DC00038432862F1E7FFF725FB0099411A5F4895
:100DD000814249D8286A8007F5D50DE0FFF71AFB54
:100DE000009006E0FFF716FB0099411A5748814230
:100DF0003AD8286A8007F5D40198002804D0E96918
:100E0000012000078143E9612078C00635D560697B
:100E100001280CD0401D686B23D038436863686B91
:100E2000400840006863FFF7F5FA064622E0686B69
:100E300038436863686B30436863FFF7EBFA064634
:100E400004E0FFF7E7FA801B02285BD8686B800795
:100E5000F7D5686BF8218843A169C9000843686326
:100E60000BE0B8436863F4E74CE0FFF7D3FA801B6C
:100E7000022847D8686B8007F7D4206A00285ED024
:100E800069680907890F022942D00126360602281F
:100E9000286805D0B0432860FFF7BCFA044633E069
:100EA000B0432860FFF7B6FA074604E0FFF7B2FA4E
:100EB000C01B022826D828688001F7D4E86AE16AB6
:100EC000000900010843E862616AA06A0843696892
:100ED0003D2212049143084368602868304328602B
:100EE000FFF798FA044604E0FFF794FA001B022883
:100EF00008D828688001F7D521E0FFF78BFA001B9E
:100F0000022801D90320FEBD28688001F5D416E02F
:100F10000128F8D06868E96A01221204636A024075
:100F20009A420AD10907E26A090F914205D10F21BD
:100F300089040840A16A884201D00120FEBD00203A
:100F4000FEBD000000100240007000408813000049
:100F5000094910B5401E884201D9012010BD074C37
:100F600060610321081F00F0FFFE0020A061072040
:100F70002061002010BD0000FFFFFF0000E000E046
:100F800070477047F0B502462032137F012B21D005
:100F9000012515770223537706687468B3687027B4
:100FA000BC430F682743776000680B4CA04208D011
:100FB000AC07A04205D0094CA04202D0084CA04288
:100FC00004D180244968A3431943816055770020E8
:100FD0001077F0BD0220F0BD002C0140000400405D
:100FE0000040014070B5040005D025462035687FDB
:100FF000002802D006E0012070BD0020287720469E
:1010000000F00AF802206877211D206800F08CFCAF
:1010100001206877002070BD08B500680549884246
:1010200007D10548C26910210A43C261C06908405E
:10103000009008BD00100040001002400268D36814
:1010400001210B43D360006882685207520F062AC1
:1010500002D002680A430260002070470168CA6833
:1010600052085200CA600068016A064A114207D15C
:10107000016A9210114203D10168490849000160D8
:101080000020704711110000704770B504460068D9
:1010900001690025C9438907002915DBC168C943D7
:1010A000890711D4E91E0161012020772068806939
:1010B0008007204602D0FFF7E7FF04E000F096F833
:1010C000204600F094F8257720680169C943490754
:1010D00017D4C168C943490713D40421C943016126
:1010E00002202077206880698005800F204602D08A
:1010F000FFF7CAFF04E000F079F8204600F077F827
:10110000257720680169C943090716D4C168C94316
:10111000090712D40821C9430161042020772068FF
:10112000C0698007204602D0FFF7AEFF04E000F060
:101130005DF8204600F05BF8257720680169C94317
:10114000C90617D4C168C943C90613D41021C943BD
:101150000161082020772068C0698005800F204643
:1011600002D0FFF791FF04E000F040F8204600F0C5
:101170003EF8257720680169C943C90708D1C168CD
:10118000C943C90704D1891E0161204600F030F827
:1011900020680169C943090609D4C168C943090621
:1011A00005D48021C94301612046FFF7E9FE20688C
:1011B0000169C943490609D4C168C943490605D430
:1011C0004021C9430161204600F03AF820680169D6
:1011D000C943890609D4C168C943890605D42021B9
:1011E000C94301612046FFF7CCFE70BD70477047D0
:1011F00070B500680E49884209D10E4C81156268AD
:101200000D48032A04DA521C6260FFF7F7F870BD3C
:1012100000220546FFF7F8F801210022490228467E
:10122000FFF7F2F8002060600448FFF717FF70BD79
:10123000001000400000002000080048640000206A
:101240007047704770470000F8B502680446D069DF
:1012500011689368524D05402E462025002E68D017
:10126000DE07F60FFF2721370F40374375D0C7073A
:1012700006D0CF0504D501271762E26F3A43E26733
:10128000820708D5DA0706D0276802223A62E26FA1
:1012900004273A43E267420708D5DA0706D02368F5
:1012A00004221A62E26F02231A43E267020709D599
:1012B0000A462A40324305D0236808221A62E36FA7
:1012C0001343E367020508D54A0106D501222368C6
:1012D000D2021A62E26F2A43E267E26F002A30D03C
:1012E000800606D5880604D5216E002901D0204647
:1012F0008847E06F21688968490602D4282108429E
:1013000024D0204600F0FAFB20688168490619D5F0
:101310008168402291438160E06E002812D021490B
:101320004163E06EFEF773FF00280AD0E06E416B68
:1013300006E0860611D58E060FD5216E1DE02046EB
:101340008847F8BD2046FFF77DFFF8BD2046FFF730
:1013500079FF0020E067F8BDFFE7C60208D55B0211
:1013600006D50120000510622046FFF76AFFF2E76C
:10137000030605D50B0603D5616E0029DFD1EAE728
:101380004006E8D54806E6D51368204640218B4341
:10139000136065670021616600F0D5F8DBE70000A7
:1013A0000F080000E91A000810B5040003D0606FB0
:1013B000002802D007E0012010BD00217020015557
:1013C000204600F027F8242060672068016849085B
:1013D00049000160204600F0A1FB0128ECD0606AC2
:1013E000002802D0204600F0E9FA2068416809226E
:1013F000D20291434160206881682A229143816032
:1014000020680168012211430160204600F03CFB86
:1014100010BD000010B586B0044614216846FEF7E2
:10142000C3FE1349206888421FD1124882690121F6
:1014300089030A43826182690A4005924269C900B0
:101440000A43426140690840059003204002009031
:1014500002200190002002900320039001200490BC
:1014600009206946C006FEF725FF06B010BD000042
:101470000038014000100240FFB50446406F83B0C1
:1014800017460D4620285CD1002D0AD0002F08D029
:10149000A168C001814207D12069002804D1E80772
:1014A00002D0012007B0F0BD204660300290007CE1
:1014B000012846D00298012101740020E067212014
:1014C0006067FEF7A7FF2646403601903782778295
:1014D0000120A1680003814202D12069002802D0C6
:1014E0002F46002511E000270FE000228021204632
:1014F00000F0B8FB002815D1002F15D021683878EE
:1015000008857F1C708A401E7082708A019B0028AB
:1015100006980090E9D100224021204600F0A2FB6D
:10152000002808D00320BDE728882168C005C00D29
:101530000885AD1CE6E7202060670299002008744A
:10154000B0E70220AEE77047FEE701688A69D24340
:10155000920701D400228A6200688169C943C907E1
:1015600003D081690122114381617047F7B50446B8
:1015700000680E468069C043C0062BD4202725464C
:10158000403520688069C043800612D5701CF8D0B1
:10159000FEF740FF0299401AB04201D8002EF0D168
:1015A000606C384360646F700020A8702870012060
:1015B000FEBD21681020C8612068C7612046FFF782
:1015C000C4FF20684168044A11404160606C0421F6
:1015D0000843E7E70020FEBD00E800FEF8B504463A
:1015E000164615481D46DAB20090079F0023204694
:1015F00000F054F83A462046069900F0B0F800286A
:1016000018D12846F5B2012809D02168300A88622D
:101610003A462046069900F0A2F800280AD1206830
:1016200085620097002240212046069B00F04AF880
:10163000002800D00120F8BD00200080F8B5044645
:10164000164615481D46DAB2C3020090079F204691
:1016500000F024F83A462046069900F080F8002869
:1016600018D12846F5B2012809D02168300A8862CD
:101670003A462046069900F072F800280AD1206800
:1016800085620097002280212046069B00F01AF810
:10169000002800D00120F8BD00200080F0B50668C9
:1016A000059C7568064F600D384385438805800D9D
:1016B000110408431843204305437560F0BD000042
:1016C000FF63FF03F8B51D4617460E46044609E0C2
:1016D000681C07D0FEF79EFE0699401AA8420BD858
:1016E000002D09D020688169304688430FD0002042
:1016F000B842EDD00020F8BD616C20200143616448
:10170000403460700020A07020700120F8BD0120DE
:10171000EEE770B516460D4604460FE03246294600
:101720002046FFF723FF002801D0012070BDFEF7FF
:1017300071FE801BA84208D8002D06D02068806961
:10174000C0438006EAD4002070BD616C20200143B4
:101750006164403460700020A0702070E5E770B5CF
:1017600016460D46044611E0324629462046FFF74C
:10177000FDFE002801D0012070BD681C06D0FEF7D8
:1017800049FE801BA84208D8002D06D02068806939
:10179000C0438007E8D4002070BD616C2020014365
:1017A0006164403460700020A0702070E3E70000A6
:1017B000F0B587B014216846FEF7F6FC1D48426973
:1017C0000121C9040A43426142690A400592426903
:1017D00089100A43426142690A4005924269490000
:1017E0000A434261406903260840134F36020590C0
:1017F000002231463846FEF707FE01240F480190CB
:101800000094694602943846FEF754FD00250920ED
:1018100001956946C00602950094FEF74BFD0295BE
:1018200069463846009603950194FEF743FD07B0DC
:10183000F0BD000000100240000800480000211028
:1018400010B50D480B4901600C49416000218160D1
:101850000161416181610122C161C2600162FEF7E3
:1018600029FE00210448FEF7DBFD00210248FEF7B7
:10187000FCFD10BD00540040180000200B020000C9
:1018800010B50A4808490160E12149024160002180
:101890008160C16001618161C1610C2201624261AC
:1018A0004162FFF781FD10BD00380140A400002017
:1018B00070477047704710B5FEF7D8FF10BD10B5E0
:1018C00096B030216846FEF76FFC00240C940D940E
:1018D0000E94142110A80F94FEF766FC02200090CD
:1018E000012003901020049008946846FFF76CF9DB
:1018F00007200C900D940E9400210F940CA8FFF774
:101900008FF8212010901294139410A8FFF70CF870
:1019100016B010BD7047000010B50248FFF7B5FBC8
:1019200010BD000064000020F0B502681D4B0124CA
:10193000A4071D4D984203D0A04201D0A84203D174
:101940007026B2434E683243184E194F98420DD05C
:10195000A0420BD0A84209D0164CA04206D0B042FB
:1019600004D0B84202D0144CA04204D10324240273
:10197000A243CC6822438024A2434C6922430260E4
:101980008A68C2620A688262984206D0B04204D075
:10199000B84202D0084A904201D10969016301218D
:1019A0004161F0BD002C01400004004000400140B6
:1019B00000440140002000400048014010B5818CE7
:1019C000C90707D001684A6801235B049A43836A08
:1019D0001A434A60818C890707D501684A68012348
:1019E0001B049A43C36A1A434A60818C490707D58E
:1019F00001684A6801239B049A43036B1A434A60B7
:101A0000818C090707D501684A680123DB039A43E3
:101A1000436B1A434A60818CC90607D502689168F6
:101A200001231B039943836B19439160818C8906C1
:101A300007D501688A6801235B039A43C36B1A4385
:101A40008A60818C490612D503685A68012109050C
:101A5000046C8A4322435A60026C8A4207D10268AE
:101A6000516803235B059943436C19435160818C92
:101A7000090607D501684A680123DB04806C9A4394
:101A800002434A6010BD0000F8B500260446C66750
:101A9000FEF7C0FC054620680068124F000709D514
:101AA00001212B46002249052046009700F0DAF874
:101AB00000280DD12068006840070BD501212B4676
:101AC000002289052046009700F0CCF8002801D0BC
:101AD0000320F8BD20206067A067603426740020D2
:101AE000F8BD0000FFFFFF0110B5406A002201466B
:101AF00040314A834A82FFF7A5FB10BD01680A689E
:101B0000FF2321339A430A6001688A685208520011
:101B10008A602021816700210166704770B5044604
:101B200080682169E26908436169002511432268E0
:101B300008431168444B194001431160216848680B
:101B4000032212039043E26810434860A169206AAF
:101B50002268084391680B231B029943014391605B
:101B60003A492068884210D13948006B8007800FBD
:101B700011D0012805D0022805D003280AD102205F
:101B800009E0042007E0082005E03249884201D13D
:101B9000002000E010200122E169D2032E4E914284
:101BA00028D1002806D0022807D0042817D00828FA
:101BB00044D11AE0FEF7B8FF13E06168274A4808ED
:101BC0008018FEF793FA80B201461039B14235D839
:101BD0002149491C01400007400F084321E0FEF75E
:101BE000B3FF616840004A08EAE7616801224808DB
:101BF0001204E5E7002806D0022807D0042813D0F5
:101C000008281BD116E0FEF78FFF0FE06168144A29
:101C1000480811E0FEF76AFA80B201461039B14275
:101C20000CD82168C8600AE0FEF78EFF61684A0898
:101C30001018EFE7616848088018EBE701250020DD
:101C400020666066284670BDF369FFFF00380140DA
:101C50000010024000440040EFFF00000024F400A8
:101C600000127A00FFB581B005460F460446603584
:101C70000A9E38E0701C36D0FEF7CCFB0499401A5F
:101C8000B04221D8002E1FD02068016849072AD50C
:101C9000C069C043000526D401202168C002086243
:101CA00020680168FF22A1329143016020688168A9
:101CB00049084900816020206067A067E067002034
:101CC0002874032005B0F0BD20680168FF22A1320E
:101CD00091430160206881684908490081602020A3
:101CE0006067A067EBE72068C1693846884305D084
:101CF000002103988142BDD00020E3E70121F8E7ED
:101D000010B50248FFF7A0FA10BD0000A4000020A3
:101D10000FB410B504A9074B02AA039800F056F8B7
:101D2000044602A9002000F08BFA204610BC08BC33
:101D300004B0184741220008F8B5040C8BB22646BF
:101D400082B25E430D0C1046370C5843360480199E
:101D50000021794116466E43370C360480197941CB
:101D600026466E438919F8BD8307FF22DB0E9A4091
:101D70008907090E9940002808DB830809489B0061
:101D80001B18186890430843186070470007000F3D
:101D90000838830804489B001B18D86990430843FF
:101DA000D861704700E400E000ED00E002E008C800
:101DB000121F08C1002AFAD170477047002001E0C5
:101DC00001C1121F002AFBD170470000FFB591B07E
:101DD0000F460546002606E025280AD0149A1399D6
:101DE00090476D1C761C28780028F5D1304615B038
:101DF000F0BD002400940121F34A029400E0044362
:101E00006D1C2B780846203B98401042F7D128786B
:101E10002A280ED0022128780246303A092A15D8FD
:101E2000009A0A235A43303A80180C436D1C0090E4
:101E3000F1E701CF0090002805DA012040030443B8
:101E4000009840420090022004436D1C28782E2800
:101E500015D10420044368786D1C2A280AD101CFCB
:101E60006D1C02900BE002990A2251433039401850
:101E70006D1C02902878014630390929F3D9287859
:101E80006C2810D006DC4C281AD068280ED06A289E
:101E900017D104E0742813D07A2812D110E0012061
:101EA000400504430CE00121090501E00321090577
:101EB0000C436978814203D10120000524186D1C70
:101EC0006D1C287803906E281ED00CDC632831D05E
:101ED00004DC00288AD0582811D1B2E064287BD0D5
:101EE00069280CD178E073282DD004DC6F2870D0DD
:101EF000702804D1A7E075286CD078286BD0149A8C
:101F000013999047761C62E06002400F022807D0C8
:101F100003280AD0042838680AD006603F1D56E01E
:101F20003868F11706604160F8E738680680F5E721
:101F30000670F3E73878694608740020487404A8EE
:101F40000390012003E0386803900020C0433F1D48
:101F500061070FD5002101E00199491C029A019106
:101F6000914213DA8142F7DB019A0399895C0029D7
:101F7000F2D10BE0002101E00199491C019181425D
:101F8000FADB019A0399895C0029F5D1019900983F
:101F9000139A401A00902146149B00F03BF90199D6
:101FA0008019461807E0039803990078491C0391AB
:101FB000149A139990470198401E0190401CF2D149
:101FC0002146149B139A009800F014F986196D1C91
:101FD00009E741E033E034E00A2000210490059154
:101FE0006002410F022905D001CFC2179446032990
:101FF00005D007E0FF1DFF08FF0003CF06E000B299
:10200000C2179446042902D140B2C1178C4600225F
:102010006146944506DA0A460021404291418C46C9
:102020002D2102E0210504D52B216A4611760121DC
:1020300003E0E10701D02021F7E7019154E00A20F5
:102040000BE0102009E0102004900021042004433C
:1020500008200591029003E00820002105910490DA
:102060006002410F022905D001CF002294460329C6
:1020700006D006E0FF1DFF08FF0003CF8C4603E0FB
:1020800080B2042900D1C0B20021019121072BD5D3
:102090000399702906D0049A1021059B4A401A43DF
:1020A00005D00EE040216A461176012108E0614624
:1020B000014306D030216A461176039951760221F8
:1020C0000191049A0821059B4A401A430CD16146AC
:1020D000014301D1610707D530216A4611760121FC
:1020E00001910299491E02910399582904D037A100
:1020F00003910FA90F910DE039A1F9E76146059B06
:10210000049AFEF709F8039B8C469B5C0F9A521EBB
:102110000F92137061460143F0D10F9807A9081A76
:1021200020300390600704D5012000048443029806
:1021300001E0012002900399884201DD401A00E08D
:10214000002041180290019809180098401A009048
:10215000E00306D42146149B139A009800F05AF825
:1021600086190020049008E006A9085C149A1399C7
:1021700090470498401C761C049001998842F3DB38
:10218000E0030CD52146149B139A009800F042F806
:10219000861904E0149A302013999047761C02990E
:1021A000481E02900029F5DC08E00F980F9900788E
:1021B000491C0F91149A13999047761C0399481E55
:1021C00003900029F1DCFBE60928010030313233AD
:1021D0003435363738396162636465660000000063
:1021E000303132333435363738394142434445464D
:1021F00000000000F8B5044600251E461746880476
:1022000004D405E039462020B0476D1C641EF9D582
:102210002846F8BDFFB50446002581B01E46C80318
:1022200001D5302700E02027880404D505E0384692
:102230000399B0476D1C641EF9D5284605B0F0BD62
:102240000A68531C0B601070704700008CB0FEF7DA
:1022500015FBFFF734FBFFF7ABFA00244D48009461
:102260004B49019401604C4984604160C910C160D0
:1022700080218161FEF7B6FE0094694645480194CD
:10228000FEF780FEFFF7FCFAFFF7DAFA00221146AC
:102290001120FEF745FB1120FEF736FB002201213D
:1022A0000520FEF73DFB0520FEF72EFB0022022154
:1022B0001B20FEF735FB1B20FEF726FB37A207CAC3
:1022C0000A2503AE01950096029507C63148012301
:1022D0000022A0214C380C3EFEF7F0F90320FDF758
:1022E000BBFF00203454401C0A28FBDB2948019521
:1022F00001230022A0214C3800960295FEF734F904
:102300006846C17B807B019100906846437B027BDD
:1023100025A106A8FFF7FCFC1E4814231A4606A9AF
:102320004030FFF7A9F86846C17C807C019100909D
:102330006846437C027C1CA106A8FFF7E9FC14E078
:102340003454401C0A28FBDB12480195012300226B
:10235000A0214C3800960295FEF706F90D4814238B
:102360001A4606A94030FFF787F80A4814231A4690
:1023700006A94030FFF780F80648019501230022A6
:10238000A0214C3800960295FEF798F90020D7E777
:1023900000100040640000203F1F000000112233A5
:1023A00044556677889900002530327820253032F0
:1023B00078202530327820253032780A0D00000050
:1023C00000000000000000000102030406070809E5
:1023D0000000000001020304F823000800000020B0
:1023E00018000000AC1D0008102400081800002090
:1023F00010050000BC1D00080000000000000000E7
:1024000001000000040000000000000000127A003B
:04000005080000BD32
:00000001FF
