:020000040800F2
:10000000D8040020D1000008350F0008810E000838
:1000100000000000000000000000000000000000E0
:10002000000000000000000000000000390F000880
:100030000000000000000000370F00083B0F000820
:10004000E3000008E3000008E3000008E300000804
:10005000E300000805020008E3000008E3000008D0
:10006000E3000008E3000008E3000008E3000008E4
:10007000E3000008E3000008E3000008E3000008D4
:10008000E3000008990F000800000000E3000008EA
:10009000E3000008E3000008E3000008E3000008B4
:1000A000E3000008E3000008E3000008E3000008A4
:1000B000E300000800000000E30000080348854654
:1000C00000F08EF800480047E1130008D804002033
:1000D0000448804704480047FEE7FEE7FEE7FEE7E6
:1000E000FEE7FEE7950F0008BD00000830B50B469F
:1000F000014600202022012409E00D46D5409D4202
:1001000005D31D469540491B254695404019154687
:10011000521E002DF1DC30BDF0B51FB406460020A4
:1001200082B005464024019100901BE001992246CF
:100130000F46304600F020F8049A059B801A99413A
:1001400010D310461946224600F039F8361A8F416E
:100150000197224601200021009F00F030F8381856
:100160004D4100902046641E0028DFDC019B009872
:100170002946324607B0F0BD10B5202A04DB0846F8
:10018000203AD040002110BD0B46D340D04020245F
:10019000A21A91400843194610BDD2B201E0027084
:1001A000401C491EFBD270470022F6E710B51346EB
:1001B0000A4604461946FFF7F0FF204610BD10B569
:1001C000202A04DB0146203A9140002010BD9140D6
:1001D00020239C1A0346E3401943904010BD0000C1
:1001E000064C0125064E05E0E36807CC2B430C3C8A
:1001F00098471034B442F7D3FFF764FF6014000847
:100200008014000810B5012000F026F810BD000091
:1002100070B5044600F0DCF80546601C02D00448C6
:100220000078241800F0D4F8401BA042FAD370BD27
:100230000400002010B501225102054800F0C2F868
:10024000044800F0B3FC0A20FFF7E2FF10BD0000F5
:10025000000800481400002010B504494A69024211
:1002600002D04861FFF7E6FF10BD00000004014026
:10027000F8B500238DE001249C40A44622407DD0A7
:100280004C68022C01D0122C0CD1DC08A4002718D9
:100290003C6A5D07ED0E0F26AE40B4430E69AE40DA
:1002A00026433E6205685E000324B4400F79A543EF
:1002B000BF07BF0FB7402F4307604D68012D05D022
:1002C000022D03D0112D01D0122D0ED18568CF68DB
:1002D000A543B7402F43876047686546AF430D7914
:1002E000ED06ED0F9D403D434560C568A5438C6814
:1002F000B4402C43C4604C68E40049D5284CA5693F
:1003000001263543A561A4699D0834400094254C1D
:10031000AD002F19BC689D072E0F0F25B540AC43CB
:100320000925ED06A84201D100250FE01E4DA84287
:1003300001D101250AE01D4DA84201D1022505E0A9
:100340001B4DA84201D1032500E00525B5402543FA
:10035000BD60184C25684E689543F60300D51543DB
:10036000256065684E689543B60300D51543656002
:10037000A5684E689543F60202D500E008E01543F3
:10038000A560E5684E689543B60200D51543E56063
:100390005B1C0A681446DC4000D06CE7F8BD000026
:1003A000001002400000014000040048000800481E
:1003B000000C00480004014042690A4200D00904D0
:1003C00081617047002A01D0816170478162704766
:1003D00001488068704700000400002002488168DE
:1003E00002788918816070470400002010B5064823
:1003F0000168102211430160002000F007F800F0AE
:1004000027F8002010BD00000020024070B504460F
:100410000D4D7D202978C000FFF768FE01460B488E
:100420000068FFF763FE00F04BFB002809D1042CA5
:1004300007D200222146401E00F02AF800206C60FE
:1004400070BD012070BD00000400002010000020DD
:1004500008B5084881690122114381618169114011
:100460000091C26901040A43C261C069084000905A
:1004700008BD000000100240002805DBC106C90EBF
:1004800001208840014908607047000000E100E059
:1004900010B500F073FF10BDF8B505460068394C83
:1004A000C00352D5E0690026C00007D4E1692004EA
:1004B0000143E161E1690140012600913248016890
:1004C000C90510D40168821511430160FFF780FF50
:1004D000074604E0FFF77CFFC01B642824D82A48A5
:1004E0000068C005F6D5206A03273F02384020D0B7
:1004F0006968394081421CD0206A226AB8430121D0
:1005000009040A432262226A8A4322622062C007E7
:100510000FD0FFF75DFF009008E0FFF759FF00994B
:10052000411A1A48814201D90320F8BD206A800788
:10053000F3D5206A6968B84308432062002E04D0CE
:10054000E169012000078143E1612878C00705D0F7
:10055000206BA96880088000084320632878800603
:1005600005D5206B10218843E9680843206328885B
:10057000400505D5206B4021884329690843206345
:100580000020F8BD001002400070004088130000F9
:10059000F8B50F46060059D03A4D2868C007C00F7D
:1005A000B84209D2286840084000384328602868CB
:1005B000C007C00FB84249D13068334C81070CD511
:1005C000400704D56068072109020843606060683D
:1005D000F0218843B168084360603078C00726D0B6
:1005E000706801280ED0216802280ED089070029E2
:1005F0002CDA61688908890001436160FFF7E8FE31
:1006000000900DE021688903F1E78901EFE7FFF72A
:10061000DFFE0099411A1D48814201D90320F8BD2F
:1006200060680C210840716889008842EFD1286811
:10063000C007C00FB8420BD92868400840003843B3
:1006400028602868C007C00FB84201D00120F8BD5B
:100650003078400706D56068072109028843F168B1
:100660000843606000F028F86168094A0906090F2C
:10067000515CC840074908600020FFF7C7FE002012
:10068000F8BD000000200240001002408813000066
:100690004814000810000020044805490068496813
:1006A000044A4905490F515CC840704710000020BA
:1006B000001002405814000810B514A30FCB88B0E6
:1006C0006C460FC415A30FCB0FC4184A51680C20F9
:1006D0000B4603401648042B16D0082B14D18B026E
:1006E0001B0F6C46E45CD26A04AB1207120F9A5CD3
:1006F000C90305D500231946FFF70EFD214601E089
:1007000020460C4900F022FE08B010BD020304058B
:10071000060708090A0B0C0D0E0F10100102030446
:1007200005060708090A0B0C0D0E0F1000100240F9
:1007300000127A0000093D00FEB5040070D0207858
:10074000DC4DC0074AD068680007800F012807D039
:1007500068680007800F022809D16868C00306D5C1
:10076000286880033AD560680028E7D036E06168E1
:10077000012914D001208004002901D0052914D0BA
:100780002A68012109048A432A6029688143296073
:100790006068002816D0FFF71BFE06460EE02868AA
:1007A0000121090408432860F2E729680143296010
:1007B000F5E7FFF70DFE801B64286ED828688003DC
:1007C000F7D50BE0FFF704FE064604E0FFF700FE56
:1007D000801B6428F1D828688003F7D4207801268C
:1007E000800700283CDA68680007800F07D0686837
:1007F0000007800F022809D16868C00306D4286862
:10080000800716D5E06801280AD112E0E0680028C8
:10081000286816D030432860FFF7DAFD074605E068
:1008200043E1FFF7D5FDC01B0228C6D82868800722
:10083000F7D52868F82188432169C9000843286052
:100840000EE0400840002860FFF7C2FD074604E0C4
:10085000FFF7BEFDC01B0228AFD828688007F7D479
:100860002078000722D5E0690028686A0ED030435E
:100870006862FFF7ADFD074604E0FFF7A9FDC01B66
:1008800002289AD8686A8007F7D50FE04008400030
:100890006862FFF79DFD074605E09DE0FFF798FDC4
:1008A000C01B022889D8686A8007F7D420780427FB
:1008B0004007002860DA00200190E869C00008D4F1
:1008C000E969B8060143E961E96901400120009145
:1008D000019079480168C90511D401688215114356
:1008E0000160FFF775FD009005E0FFF771FD0099CD
:1008F000401A642870D870480068C005F5D5A06813
:1009000001280AD0002801D0052810D0286A400804
:1009100040002862286AB84301E0286A3043286210
:10092000A068002812D0FFF753FD00900AE0286A63
:1009300038432862F1E7FFF74BFD0099411A5F4801
:10094000814249D8286A8007F5D50DE0FFF740FDC0
:10095000009006E0FFF73CFD0099411A574881429C
:100960003AD8286A8007F5D40198002804D0E969AC
:10097000012000078143E9612078C00635D5606910
:1009800001280CD0401D686B23D038436863686B26
:10099000400840006863FFF71BFD064622E0686BD5
:1009A00038436863686B30436863FFF711FD0646A0
:1009B00004E0FFF70DFD801B02285BD8686B800701
:1009C000F7D5686BF8218843A169C90008436863BB
:1009D0000BE0B8436863F4E74CE0FFF7F9FC801BD9
:1009E000022847D8686B8007F7D4206A00285ED0B9
:1009F00069680907890F022942D0012636060228B4
:100A0000286805D0B0432860FFF7E2FC044633E0D5
:100A1000B0432860FFF7DCFC074604E0FFF7D8FC92
:100A2000C01B022826D828688001F7D4E86AE16A4A
:100A3000000900010843E862616AA06A0843696826
:100A40003D221204914308436860286830432860BF
:100A5000FFF7BEFC044604E0FFF7BAFC001B0228C7
:100A600008D828688001F7D521E0FFF7B1FC001B0A
:100A7000022801D90320FEBD28688001F5D416E0C4
:100A80000128F8D06868E96A01221204636A02400A
:100A90009A420AD10907E26A090F914205D10F2152
:100AA00089040840A16A884201D00120FEBD0020CF
:100AB000FEBD0000001002400070004088130000DE
:100AC000094910B5401E884201D9012010BD074CCC
:100AD00060610321081F00F051FC0020A061072085
:100AE0002061002010BD0000FFFFFF0000E000E0DB
:100AF00070477047F0B502462032137F012B21D09A
:100B0000012515770223537706687468B368702748
:100B1000BC430F682743776000680B4CA04208D0A5
:100B2000AC07A04205D0094CA04202D0084CA0421C
:100B300004D180244968A34319438160557700207C
:100B40001077F0BD0220F0BD002C014000040040F1
:100B50000040014070B5040005D025462035687F6F
:100B6000002802D006E0012070BD00202877204632
:100B700000F00AF802206877211D206800F014FABE
:100B800001206877002070BD08B5006805498842DB
:100B900007D10548C26910210A43C261C0690840F3
:100BA000009008BD00100040001002400268D368A9
:100BB00001210B43D360006882685207520F062A56
:100BC00002D002680A430260002070470168CA68C8
:100BD00052085200CA600068016A064A114207D1F1
:100BE000016A9210114203D101684908490001606D
:100BF0000020704711110000704770B5044600686E
:100C000001690025C9438907002915DBC168C9436B
:100C1000890711D4E91E01610120207720688069CD
:100C20008007204602D0FFF7E7FF04E000F096F8C7
:100C3000204600F094F8257720680169C9434907E8
:100C400017D4C168C943490713D40421C9430161BA
:100C500002202077206880698005800F204602D01E
:100C6000FFF7CAFF04E000F079F8204600F077F8BB
:100C7000257720680169C943090716D4C168C943AB
:100C8000090712D40821C943016104202077206894
:100C9000C0698007204602D0FFF7AEFF04E000F0F5
:100CA0005DF8204600F05BF8257720680169C943AC
:100CB000C90617D4C168C943C90613D41021C94352
:100CC0000161082020772068C0698005800F2046D8
:100CD00002D0FFF791FF04E000F040F8204600F05A
:100CE0003EF8257720680169C943C90708D1C16862
:100CF000C943C90704D1891E0161204600F030F8BC
:100D000020680169C943090609D4C168C9430906B5
:100D100005D48021C94301612046FFF7E9FE206820
:100D20000169C943490609D4C168C943490605D4C4
:100D30004021C9430161204600F03AF8206801696A
:100D4000C943890609D4C168C943890605D420214D
:100D5000C94301612046FFF7CCFE70BD7047704764
:100D600070B500680E49884209D10E4C8115226881
:100D70000D48032A04DA521C2260FFF71DFB70BDE8
:100D800000220546FFF71EFB0121002249022846EA
:100D9000FFF718FB002020600448FFF717FF70BD25
:100DA000001000400000002000080048140000204F
:100DB000704710B5040003D0606F002802D007E030
:100DC000012010BD002170200155204600F026F8BA
:100DD00024206067206801684908490001602046B6
:100DE00000F0C2F90128ECD0606A002802D0204649
:100DF00000F024F9206841680922D2029143416041
:100E0000206881682A22914381602068016801225C
:100E100011430160204600F077F910BD10B586B08F
:100E2000044614216846FFF7BFF913492068884239
:100E30001FD112488269012189030A4382618269B4
:100E40000A4005924269C9000A434261406908406C
:100E500005900320400200900220019000200290A3
:100E6000032003900120049009206946C006FFF783
:100E7000FFF906B010BD000000380140001002402C
:100E8000FEE70000F0B587B014216846FFF78CF943
:100E9000194842690121C9040A43426142690A4072
:100EA0000592426989100A4342614069032608405D
:100EB000124F36020590002231463846FFF782FA7B
:100EC00001240F4801900094694602943846FFF7C8
:100ED000CFF90025092001956946C00602950094C6
:100EE000FFF7C6F9029569463846009603950194C6
:100EF000FFF7BEF907B0F0BD00100240000800483F
:100F00000000111010B50A48084901604B21490240
:100F1000416000218160C16001618161C1610C2279
:100F2000016242614162FFF744FF10BD0038014099
:100F30005400002070477047704710B5FFF74EFA15
:100F400010BD30B595B030216846FFF72DF900246B
:100F50000C940D940E94142110A80F94FFF724F90B
:100F60000220009001251020039504900894684603
:100F7000FFF7E2FB07200C900D940E9400210F94D4
:100F80000CA8FFF705FB10A810951294FFF784FA40
:100F900015B030BD7047000010B50248FFF72DFEB8
:100FA00010BD000014000020F0B502681D4B0124A4
:100FB000A4071D4D984203D0A04201D0A84203D1FE
:100FC0007026B2434E683243184E194F98420DD0E6
:100FD000A0420BD0A84209D0164CA04206D0B04285
:100FE00004D0B84202D0144CA04204D103242402FD
:100FF000A243CC6822438024A2434C69224302606E
:101000008A68C2620A688262984206D0B04204D0FE
:10101000B84202D0084A904201D109690163012116
:101020004161F0BD002C014000040040004001403F
:1010300000440140002000400048014010B5818C70
:10104000C90707D001684A6801235B049A43836A91
:101050001A434A60818C890707D501684A680123D1
:101060001B049A43C36A1A434A60818C490707D517
:1010700001684A6801239B049A43036B1A434A6040
:10108000818C090707D501684A680123DB039A436D
:10109000436B1A434A60818CC90607D50268916880
:1010A00001231B039943836B19439160818C89064B
:1010B00007D501688A6801235B039A43C36B1A430F
:1010C0008A60818C490612D503685A680121090596
:1010D000046C8A4322435A60026C8A4207D1026838
:1010E000516803235B059943436C19435160818C1C
:1010F000090607D501684A680123DB04806C9A431E
:1011000002434A6010BD0000F8B500260446C667D9
:10111000FFF75EF9054620680068124F000709D501
:1011200001212B46002249052046009700F0C0F817
:1011300000280DD12068006840070BD501212B46FF
:10114000002289052046009700F0B2F8002801D05F
:101150000320F8BD20206067A0676034267400205B
:10116000F8BD0000FFFFFF0170B5044680682169EB
:10117000E269084361690025114322680843116848
:10118000444B19400143116021684868032212034F
:101190009043E26810434860A169206A22680843CE
:1011A00091680B231B029943014391603A492068DF
:1011B000884210D13948006B8007800F11D0012878
:1011C00005D0022805D003280AD1022009E0042016
:1011D00007E0082005E03249884201D1002000E004
:1011E00010200122E169D2032E4E914228D100281D
:1011F00006D0022807D0042817D0082844D11AE0C6
:10120000FFF74AFA13E06168274A48088018FEF79A
:101210006DFF80B201461039B14235D82149491CD1
:1012200001400007400F084321E0FFF745FA6168DD
:1012300040004A08EAE76168012248081204E5E72D
:10124000002806D0022807D0042813D008281BD174
:1012500016E0FFF721FA0FE06168144A480811E030
:10126000FEF744FF80B201461039B1420CD8216824
:10127000C8600AE0FFF720FA61684A081018EFE733
:10128000616848088018EBE7012500202066606649
:10129000284670BDF369FFFF00380140001002408E
:1012A00000440040EFFF00000024F40000127A0028
:1012B000FFB581B005460F46044660350A9E38E00A
:1012C000701C36D0FFF784F80499401AB04221D838
:1012D000002E1FD02068016849072AD5C069C04385
:1012E000000526D401202168C00208622068016838
:1012F000FF22A132914301602068816849084900BA
:10130000816020206067A067E067002028740320C8
:1013100005B0F0BD20680168FF22A1329143016051
:101320002068816849084900816020206067A067C3
:10133000EBE72068C1693846884305D0002103984F
:101340008142BDD00020E3E70121F8E7F8B5040CA5
:101350008BB2264682B25E430D0C1046370C5843C2
:10136000360480190021794116466E43370C360445
:101370008019794126466E438919F8BD8307FF22FB
:10138000DB0E9A408907090E9940002808DB830884
:1013900009489B001B181868904308431860704761
:1013A0000007000F0838830804489B001B18D86901
:1013B00090430843D861704700E400E000ED00E08E
:1013C00002E008C8121F08C1002AFAD1704770470E
:1013D000002001E001C1121F002AFBD1704700006C
:1013E0001CB5FFF703F8FFF7ACFDFFF74BFD00243A
:1013F00013480094114901940160124984604160CE
:10140000C9108461C160FFF7A5FB009469460C48D0
:101410000194FFF76FFBFFF775FD002211461120C5
:10142000FFF736F81120FFF727F8002202210520E8
:10143000FFF72EF80520FFF71FF8FEE70010004029
:10144000140000203F1F000000000000000000000A
:10145000010203040607080900000000010203045A
:10146000801400080000002014000000C0130008D1
:101470009414000814000020C4040000D0130008D5
:101480000000000001000000040000000000000057
:0414900000127A00CC
:04000005080000BD32
:00000001FF
