:020000040800F2
:1000000008040020D5000008430100084101000851
:1000100000000000000000000000000000000000E0
:100020000000000000000000000000008B0100083C
:10003000000000000000000089010008E501000840
:10004000E7000008E7000008E7000008E7000008F4
:10005000E700000815010008E7000008E7000008B5
:10006000E7000008E7000008E7000008E7000008D4
:10007000E7000008E7000008E7000008E7000008C4
:10008000E7000008E7000008E7000008E7000008B4
:10009000E7000008E7000008E7000008E7000008A4
:1000A000E7000008E7000008E70000084D0200082C
:1000B000E7000008E7000008E7000008E700000884
:1000C0000348854600F014F800480047C5020008C0
:1000D000080400200448804704480047FEE7FEE784
:1000E000FEE7FEE7FEE7FEE7E9010008C1000008C1
:1000F000064C0125064E05E0E36807CC2B430C3C7B
:1001000098471034B442F7D3FFF7DEFF9803000896
:10011000B8030008064841690122114341610649BC
:10012000044A0878054B125C1A81401C087070471D
:100130000004014094030008000000202038014022
:10014000FEE770478307FF22DB0E9A408907090EFE
:10015000994000280BDA0007000F08388308084888
:100160009B001818C36993430B43C361704783080E
:1001700004489B001B181868904308431860704798
:1001800000ED00E000E400E07047704713491120E3
:1001900008601348416841604168416041687B22C2
:1001A000D2039143416041680522D204114341606A
:1001B0000168012212061143016001688901FCD522
:1001C0004168890889004160416802221143416009
:1001D00041680907890F0229FAD1704700200240BF
:1001E000001002407047000010B514480168012259
:1001F000114301604168124A114041600168114A8F
:10020000114001600168012292049143016041683C
:100210003F22120491434160C16A09090901C16288
:10022000016B094A11400163416B49084900416370
:1002300000218160FFF7AAFF10BD000000100240FE
:100240000CB8FF08FFFFF6FE2CFEFCFF104AD06939
:10025000400618D50F490878042807D00E4A0C4BE1
:10026000125C20331A81401C08707047002008700F
:10027000106A402108431062084841690122520275
:1002800051404161704701200549C0060860704730
:1002900000380140000000209403000800080048D6
:1002A00080E100E002E008C8121F08C1002AFAD16C
:1002B00070477047002001E001C1121F002AFBD1E6
:1002C000704700002C4D68690121C904084368612A
:1002D0002A4801680F22120491430522120489184A
:1002E0000160686901267604304368610924E406E8
:1002F00020680F2189048843D10040182060606A7B
:10030000FF2109018843FF3011306062A869F110B4
:100310000843A8611B481A49C16009210160C169ED
:100320004906FCD5026A40210A43026202680A4378
:10033000026000211B20FFF705FF0121124FC806B4
:1003400038606869304368612068800880002060F8
:100350000E4882681209120182600D4802680A4341
:10036000026082680A43826000210520FFF7EAFEEE
:1003700020203860FEE7000000100240000800481E
:10038000881300000038014000E100E00000014057
:100390000004014053540A00B80300080000002084
:1003A00004000000A4020008BC03000804000020B0
:0C03B00004040000B4020008000000007B
:04000005080000C12E
:00000001FF
