:020000040800F2
:1000000028040020C90000081F0900081D09000875
:1000100000000000000000000000000000000000E0
:10002000000000000000000000000000230900089C
:100030000000000000000000210900082509000858
:10004000DB00000800000000DB000008DB00000807
:10005000DB000008DB000008DB000008DB00000814
:1000600000000000DB000008DB000008DB000008E7
:10007000DB000008DB000008DB00000800000000D7
:10008000DB0000080000000000000000DB000008AA
:10009000DB000008DB000008DB000008DB000008D4
:1000A000DB000008DB000008DB000008DB000008C4
:1000B000DB0000080348854600F07CF80048004754
:1000C0001D0A00082804002004488047044800470F
:1000D000FEE7FEE7FEE7FEE7FEE7FEE72D09000884
:1000E000B500000830B50B4601460020202201244F
:1000F00009E00D46D5409D4205D31D469540491B5C
:100100002546954040191546521E002DF1DC30BDA4
:10011000F0B51FB40646002082B005464024019188
:1001200000901BE0019922460F46304600F030F85F
:10013000049A059B801A994110D31046194622460D
:1001400000F016F8361A8F4101972246012000214F
:10015000009F00F00DF838184D4100902046641EB5
:100160000028DFDC019B00982946324607B0F0BD2D
:1001700010B5202A04DB0146203A9140002010BD32
:10018000914020239C1A0346E3401943904010BD40
:1001900010B5202A04DB0846203AD040002110BDCB
:1001A0000B46D340D0402024A21A91400843194660
:1001B00010BD0000064C0125064E05E0E36807CCA3
:1001C0002B430C3C98471034B442F7D3FFF776FF2B
:1001D000D40A0008F40A000870B5044600F0B8F824
:1001E0000546601C02D004480078241800F0B0F8DE
:1001F000401BA042FAD370BD04000020F8B50023D4
:100200008DE001249C40A44622407DD04C68022C05
:1002100001D0122C0CD1DC08A40027183C6A5D0721
:10022000ED0E0F26AE40B4430E69AE4026433E624B
:1002300005685E000324B4400F79A543BF07BF0FD4
:10024000B7402F4307604D68012D05D0022D03D024
:10025000112D01D0122D0ED18568CF68A543B7406E
:100260002F43876047686546AF430D79ED06ED0F74
:100270009D403D434560C568A5438C68B4402C4310
:10028000C4604C68E40049D5284CA5690126354373
:10029000A561A4699D0834400094254CAD002F1938
:1002A000BC689D072E0F0F25B540AC430925ED0610
:1002B000A84201D100250FE01E4DA84201D1012521
:1002C0000AE01D4DA84201D1022505E01B4DA842C0
:1002D00001D1032500E00525B5402543BD60184C3C
:1002E00025684E689543F60300D51543256065687B
:1002F0004E689543B60300D515436560A5684E6802
:100300009543F60202D500E008E01543A560E568D4
:100310004E689543B60200D51543E5605B1C0A683C
:100320001446DC4000D06CE7F8BD0000001002402D
:10033000000001400004004800080048000C00488C
:100340000004014042690A4200D0090481617047FB
:10035000014880687047000004000020024881685E
:1003600002788918816070470400002010B50648A3
:100370000168102211430160032000F007F800F02B
:1003800027F8002010BD00000020024070B5044690
:100390000D4D7D202978C000FFF7A4FE01460B48D3
:1003A0000068FFF79FFE00F0A1FA002809D1042C95
:1003B00007D200222146401E00F00BF800206C609E
:1003C00070BD012070BD000004000020000000206E
:1003D000704710B500F0F0FA10BD0000F8B50F46F8
:1003E000060059D03A4D2868C007C00FB84209D25C
:1003F000286840084000384328602868C007C00FBC
:10040000B84249D13068334C81070CD5400704D538
:10041000606807210902084360606068F021884332
:10042000B168084360603078C00726D07068012842
:100430000ED0216802280ED0890700292CDA6168C5
:100440008908890001436160FFF782FF00900DE099
:1004500021688903F1E78901EFE7FFF779FF009948
:10046000411A1D48814201D90320F8BD60680C2162
:100470000840716889008842EFD12868C007C00F22
:10048000B8420BD9286840084000384328602868E3
:10049000C007C00FB84201D00120F8BD3078400736
:1004A00006D56068072109028843F1680843606047
:1004B00000F018F86168094A0906090F515CC84044
:1004C000074908600320FFF761FF0020F8BD000026
:1004D000002002400010024088130000C40A0008F7
:1004E0000000002010B514A30FCB88B06C460FC4D9
:1004F00015A30FCB0FC4184A51680C200B460340BC
:100500001648042B16D0082B14D18B021B0F6C46F7
:10051000E45CD26A04AB1207120F9A5CC90305D5DA
:1005200000231946FFF7F4FD214601E020460C495F
:1005300000F02AFA08B010BD0203040506070809F6
:100540000A0B0C0D0E0F101001020304050607081C
:10055000090A0B0C0D0E0F100010024000127A0059
:1005600000093D00FEB5040070D02078DC4DC007C6
:100570004AD068680007800F012807D06868000724
:10058000800F022809D16868C00306D52868800357
:100590003AD560680028E7D036E06168012914D0B8
:1005A00001208004002901D0052914D02A680121E6
:1005B00009048A432A602968814329606068002809
:1005C00016D0FFF7C5FE06460EE028680121090493
:1005D00008432860F2E7296801432960F5E7FFF73F
:1005E000B7FE801B64286ED828688003F7D50BE01F
:1005F000FFF7AEFE064604E0FFF7AAFE801B642864
:10060000F1D828688003F7D42078012680070028D5
:100610003CDA68680007800F07D068680007800F21
:10062000022809D16868C00306D42868800716D557
:10063000E06801280AD112E0E0680028286816D096
:1006400030432860FFF784FE074605E043E1FFF7EB
:100650007FFEC01B0228C6D828688007F7D5286807
:10066000F82188432169C900084328600EE040084A
:1006700040002860FFF76CFE074604E0FFF768FEC5
:10068000C01B0228AFD828688007F7D4207800075D
:1006900022D5E0690028686A0ED030436862FFF70F
:1006A00057FE074604E0FFF753FEC01B02289AD806
:1006B000686A8007F7D50FE0400840006862FFF7DE
:1006C00047FE074605E09DE0FFF742FEC01B0228FB
:1006D00089D8686A8007F7D4207804274007002863
:1006E00060DA00200190E869C00008D4E969B80622
:1006F0000143E961E96901400120009101907948D5
:100700000168C90511D40168821511430160FFF722
:100710001FFE009005E0FFF71BFE0099401A6428B9
:1007200070D870480068C005F5D5A06801280AD0C7
:10073000002801D0052810D0286A4008400028620F
:10074000286AB84301E0286A30432862A06800287C
:1007500012D0FFF7FDFD00900AE0286A38432862B6
:10076000F1E7FFF7F5FD0099411A5F48814249D84A
:10077000286A8007F5D50DE0FFF7EAFD009006E056
:10078000FFF7E6FD0099411A574881423AD8286A96
:100790008007F5D40198002804D0E96901200007FA
:1007A0008143E9612078C00635D5606901280CD005
:1007B000401D686B23D038436863686B4008400075
:1007C0006863FFF7C5FD064622E0686B384368633F
:1007D000686B30436863FFF7BBFD064604E0FFF734
:1007E000B7FD801B02285BD8686B8007F7D5686B64
:1007F000F8218843A169C900084368630BE0B84346
:100800006863F4E74CE0FFF7A3FD801B022847D89C
:10081000686B8007F7D4206A00285ED069680907F2
:10082000890F022942D0012636060228286805D001
:10083000B0432860FFF78CFD044633E0B0432860E6
:10084000FFF786FD074604E0FFF782FDC01B022884
:1008500026D828688001F7D4E86AE16A0009000117
:100860000843E862616AA06A084369683D2212048D
:10087000914308436860286830432860FFF768FDAB
:10088000044604E0FFF764FD001B022808D828682E
:100890008001F7D521E0FFF75BFD001B022801D99D
:1008A0000320FEBD28688001F5D416E00128F8D0A9
:1008B0006868E96A01221204636A02409A420AD116
:1008C0000907E26A090F914205D10F218904084006
:1008D000A16A884201D00120FEBD0020FEBD0000BB
:1008E000001002400070004088130000094910B554
:1008F000401E884201D9012010BD074C60610321D0
:10090000081F00F059F80020A06107202061002096
:1009100010BD0000FFFFFF0000E000E0FEE77047B1
:100920007047704710B5FFF719FD10BD13480168F7
:100930000122114301604168114A11404160016880
:10094000104A114001600168012292049143016044
:1009500041683F22120491434160C16A09090901BB
:10096000C162016BFF22143291430163416B49085C
:10097000490041630021816070470000001002407F
:100980000CB8FF08FFFFF6FEF8B5040C8BB2264644
:1009900082B25E430D0C1046370C58433604801962
:1009A0000021794116466E43370C3604801979418F
:1009B00026466E438919F8BD8307FF22DB0E9A4055
:1009C0008907090E9940002808DB830809489B0025
:1009D0001B18186890430843186070470007000F01
:1009E0000838830804489B001B18D86990430843C3
:1009F000D861704700E400E000ED00E002E008C8C4
:100A0000121F08C1002AFAD170477047002001E088
:100A100001C1121F002AFBD17047000090B0FFF700
:100A2000A5FC022705200097C00401240025032609
:100A300008970A900B96099503946846FFF792FD74
:100A4000002800D0FEE707200C900E9501210D979D
:100A50000F950CA8FFF7C2FC002800D0FEE716484F
:100A600042690121C9040A4342614069134D0840AB
:100A700000906C608F122F60EE60AC60104C2946C5
:100A80002046FFF7BBFB7E10294620462E60FFF76D
:100A9000B5FB35467D26F60039462046FFF752FC69
:100AA0003046FFF799FB29462046FFF74BFC3046BE
:100AB000FFF792FBF0E7000000100240100000205A
:100AC00000080048000000000000000001020304CC
:100AD00006070809F40A00080000002010000000C2
:100AE000FC090008040B0008100000201804000096
:100AF0000C0A000800127A00010000000400000047
:040B000000000000F1
:04000005080000B53A
:00000001FF
