:020000040800F2
:1000000010040020D5000008410100081501000877
:1000100000000000000000000000000000000000E0
:100020000000000000000000000000004501000882
:10003000000000000000000043010008A1010008CA
:10004000E7000008E7000008E7000008E7000008F4
:10005000E7000008E7000008E7000008E7000008E4
:10006000E7000008E7000008E7000008E7000008D4
:10007000E7000008E7000008E7000008E7000008C4
:10008000E7000008E7000008E7000008E7000008B4
:10009000E7000008E7000008E7000008E7000008A4
:1000A000E7000008E7000008E7000008E700000894
:1000B000E7000008E7000008E7000008E700000884
:1000C0000348854600F014F80048004791020008F4
:1000D000100400200448804704480047FEE7FEE77C
:1000E000FEE7FEE7FEE7FEE70D020008C10000089C
:1000F000064C0125064E05E0E36807CC2B430C3C7B
:1001000098471034B442F7D3FFF7DEFF44030008EA
:1001100064030008FEE700000121090442180921D8
:10012000C906CA61C861CA61C869C869C00304D484
:10013000024801880122114301807047000000201D
:10014000704770477047000013491120086013483A
:10015000416841604168416041687B22D20391431C
:10016000416041680522D2041143416001680122C7
:1001700012061143016001688901FCD541688908B4
:1001800089004160416802221143416041680907CA
:10019000890F0229FAD17047002002400010024066
:1001A00030B51848FF2442681749521EC82301344D
:1001B0004260521C10D105886200002D1BD00588BA
:1001C000FF2D09D005886D006D1E45807D252D0110
:1001D000456083608C618A624288002A0AD0856803
:1001E0006D1E85606D1C05D14D6965404D61521EC7
:1001F0008360428030BD4D6955404D617D22D20003
:100200004260E9E7000000200008004810B51448EB
:1002100001680122114301604168124A11404160A6
:100220000168114A11400160016801229204914362
:10023000016041683F22120491434160C16A09098B
:100240000901C162016B094A11400163416B490810
:100250004900416300218160FFF776FF10BD000077
:10026000001002400CB8FF08FFFFF6FE2CFEFCFF5A
:1002700002E008C8121F08C1002AFAD1704770476F
:10028000002001E001C1121F002AFBD170470000CD
:100290002548416905225204114341612348016800
:1002A0000F22120405249143240409190160092333
:1002B000DB06D86880088000D8601E481C49416170
:1002C0001D490722CD692D022D0A46043543CD6113
:1002D0000021816102611948FFF71EFF1D68DA687D
:1002E0009968586A1E6826431E60DC6801263443FC
:1002F000DC609C680326360434439C605C6A3226CA
:1003000034435C621C68AC4208D1DC68944205D17D
:100310009A688A4202D1596A814204D00848018809
:10032000022211430180FEE700100240000800484D
:100330007FBB000000E000E004ED00E001030000EE
:100340000000002064030008000000200C000000F2
:1003500070020008700300080C0000200404000074
:100360008002000800000000E8030000C800000050
:04000005080000C12E
:00000001FF
